:020000022000DC
:1070000000000420A9730200597402005B7402009E
:107010005D7402005F7402006174020000000000F1
:107020000000000000000000000000006374020087
:107030006574020000000000677402005DA7020092
:1070400045B202000994020091AD02006B74020087
:1070500091B102006B740200D5B202006B740200A1
:107060006B7402006B740200A99302006B7402003F
:107070006B7402006B7402006B7402006B7402008C
:107080006B7402006B7402006B7402006B7402007C
:107090006B7402006B7402006B7402006B7402006C
:1070A0006B7402006B740200419302006B74020067
:1070B0006B7402006B74020000000000000000000E
:1070C0006B7402006B7402006B7402006B7402003C
:1070D0006B7402006B7402006B7402006DA70200F7
:1070E0006B7402006B7402006B74020000000000FD
:1070F000000000006B740200000000006B740200CE
:10710000000000000000000000000000000000007F
:10711000000000000000000000000000000000006F
:10712000000000000000000000000000000000005F
:10713000000000000000000000000000000000004F
:10714000000000000000000000000000000000003F
:10715000000000000000000000000000000000002F
:10716000000000000000000000000000000000001F
:10717000000000000000000000000000000000000F
:1071800000000000000000000000000000000000FF
:1071900000000000000000000000000000000000EF
:1071A00000000000000000000000000000000000DF
:1071B00000000000000000000000000000000000CF
:1071C00000000000000000000000000000000000BF
:1071D00000000000000000000000000000000000AF
:1071E000000000000000000000000000000000009F
:1071F000000000000000000000000000000000008F
:1072000054696E79555342004D6173732053746F06
:1072100072616765005061636B65742072656365B8
:10722000697665643A0D0A0049525120636F756EA4
:10723000743A20256C750D0A0030313233343536FE
:107240003738394142434445460054696E795553B5
:1072500042204465766963650054696E79555342EE
:10726000204344430054696E79555342204D5343A3
:107270000000000000010100010101010101000006
:10728000000000090404000000000000B5820200B4
:10729000517A0200798202008D8802006592020014
:1072A000818F0200000000000000000000000000CC
:1072B0006982020000000000598202004189020038
:1072C00069910200E58A0200000000000000000051
:1072D0000338FDD8704700000000000000000000E7
:1072E0000338FDD8704712010002EF020140FECAC8
:1072F0000340000101020301090262000301008052
:1073000032080B0002020200000904000001020220
:1073100000040524002001052401000104240206C4
:10732000052406000107058103100001090401007E
:10733000020A000000070502024000000705820261
:107340004000000904020002080650050705030278
:10735000400000070583024000000001002030309B
:1073600030303030303030303030303083720200E6
:10737000007202004A72020000000000597202000E
:1073800065720200232D302B2000686C4C0065666E
:107390006745464700303132333435363738396146
:0873A0006263646566000000F1
:1073A80019491A4A1A4B00F010F81A491A4A1B4B85
:1073B80000F00BF81A491B4A1B4B00F006F81B4952
:1073C8001B4A1C4B00F001F806E0521A03DD043A90
:1073D80098588850FBDC70471749184A00F009F89C
:1073E8001749184A00F005F81749184A00F001F83B
:1073F80006E00020521A02DD043A8850FCDC70478F
:1074080003F0CEFB02F06CF8003400201855002081
:1074180034BE020018550020185500204CDF020029
:1074280018550020185500204CDF02001855002080
:10743800185500204CDF0200185500204464002035
:107448004464002044640020446400204464002014
:10745800FEE7FEE7FEE7FEE7FEE7FEE7FEE7FEE7FC
:10746800FEE7FEE7F0B5054600200446012607467C
:107478008C4208D10F4B1A6822B100221A601B688F
:1074880040F00040F0BDE3B29B0003F580729B081A
:1074980006FA03F31D420BD002F1804202F5C04206
:1074A800D2F800C0BCF1000F02D017601268184370
:1074B8000134DDE77C6100402DE9F0414309104FBC
:1074C800104CFB5C00F01F021344DBB20C33054682
:1074D80034F81330DA050E4607D5C3F3432304EB1B
:1074E800C30254F833305268984723692BB1626954
:1074F80031462846BDE8F0411847BDE8F08100BF95
:107508005C7302002434002000F180431A68002ACA
:107518001FBF00221A601B68012008BF00207047A7
:10752800A1F5807310B59B08012404FA03F31840F1
:107538000AD001F14021086830B1002008600968CC
:1075480011680B431360204610BDF7B500230446AD
:1075580001AA0F464FF4A6710193FFF7E1FF01AAB4
:107568004FF482712046FFF7DBFF01AA06464FF46D
:107578008C712046FFF7D4FF054630B1E7B126B13C
:107588004FF040233546D3F83C3501AA4FF48871B3
:107598002046FFF7C5FF30B12FB125B91EB14FF016
:1075A8004023D3F83C3501AA4FF490712046FFF7E9
:1075B800B7FF019803B0F0BD3D46E6E71FB50446A6
:1075C80010220021684603F06BFF044B8DF8004041
:1075D800D3E900126846904704B010BDA45F0020AC
:1075E80030B585B005460C4610220021684603F0E8
:1075F80057FF01238DF80030044BCDE90154D3E93E
:1076080000126846904705B030BD00BFA45F002057
:1076180010B500F1804202F5005213686BB1A0F575
:1076280080739B08012404FA03F313EA010003D0D2
:10763800002313601368204610BD1846FCE70000BD
:107648000C4A00F07F0302EB430202EBD01000F17A
:10765800200390F82620C2F38000520709D59A79B2
:1076680012F0010104D19A7961F382029A7170478C
:1076780000207047545A0020114A00F07F0302EBA3
:10768800430202EBD01000F1200390F8260010F01E
:10769800010011D19A79C2F3800152070FD4987969
:1076A80010F001000AD19A79520708D49A7942F069
:1076B80004029A71012070470020704708467047FD
:1076C800545A0020074B5A7802F0FF0042B11B7849
:1076D8005B0704D4044B587900F001007047002080
:1076E800704700BF545A0020B055002070B50A4BAF
:1076F8000A4C5878002285082646013219683160FC
:10770800AA4204F1040403F10403F5DD044B1A68EA
:10771800044B1A6070BD00BF10620020715E00202B
:10772800106300207C5F0020064B01229A64064A01
:10773800D3F8483510684FF47A72B3FBF2F3184463
:10774800704700BF00A00040FC5F0020124BD3F838
:1077580050151A46F1B1D3F85015042903D0D3F8BF
:1077680050150C2909D1D2F85035042BFBD00A4A00
:10777800D2F850350C2BFBD070470022C3F80022FA
:10778800C3F8102101221A61D3F85025002AFBD131
:10779800C3F81021704700BF00100040F8B52A4B0D
:1077A800891000221F46914247DA284C236813B1FA
:1077B800FFF7BAFF0646236823B1FFF7B5FF831B1F
:1077C800022BF8D9224BC3F80475236813B1FFF7CD
:1077D800ABFF0546236823B1FFF7A6FF431B022B27
:1077E800F8D91B48D0F85035092B05D0D0F85035BA
:1077F8000A2B01D0FFF7AAFF164B00221A600323B9
:10780800C0F8003201230360134B04221A70104B96
:10781800D3F85025002AFBD0D3F850250C2AF7D0EE
:10782800D3F85025042AF3D0D3F8002242F01802E6
:10783800C3F8002201232360F8BD50F8224043F822
:10784800044B0132AFE700BF286300200462002028
:1078580000100040545B0020685D0020034B1B684B
:10786800DB0700D500BE0020704700BFF0ED00E048
:1078780070B4817801F07F03082B07D9574B1B6838
:10788800DB0700D500BE002070BC7047544AC4789E
:107898009578828804F00304022CC2F30A020CD003
:1078A800032C50D0012C12D1022D40F2FF3408BF16
:1078B8004FF48064A24219D904E0022D0AD1B2F52E
:1078C800007F13D0454B1B68DA0700D500BE70BC9B
:1078D800FFF7C4BFA2F10804A4B2182C01D9402AAA
:1078E800EFE7404D25FA04F4E407EBD53E4D5C0084
:1078F80004EBD11405EB0414CE092281C27802F0FE
:107908000302012A2FD00120384A00FA03F406BBEB
:1079180003F10C05A840C2F80403D2F8140503F5D6
:1079280094732043C2F8140542F823602F4BC3F820
:10793800181541F48071C3F80C15BFF36F8FBFF3AE
:107948004F8F0120A0E7022D0CBF4FF48064402424
:10795800B0E702339840C2F80403D2F81035234345
:10796800C2F81035E2E7082B88D1204BDEB9B5F80C
:10797800182112B18022C3F81C250022C3F8502117
:10798800D3F8002312F4001208BFC3F85421174B90
:107998004FF44012C3F80423D3F8142542F480723C
:1079A800C3F81425C9E70022C3F82C21B5F808212B
:1079B80012B18022C3F81C250C4BD3F8002312F413
:1079C800001208BFC3F85421094AC3F80423D3F8A6
:1079D800102542F48072C3F81025AEE7F0ED00E000
:1079E800545A002001010001AC56002000700240EA
:1079F80000082000F8B50C4615461E460227637895
:107A0800052B04D1E37803F00303022B07D00D4BB9
:107A1800186810F0010001D000BE0020F8BD204613
:107A2800FFF726FF18B9BDE8F840FFF717BFA3789E
:107A3800DA0914BF33702B702378012F1C44EDD062
:107A48000127DCE7F0ED00E0012070470B680249F0
:107A58000B610121184700BF98560020054B802272
:107A680008B15A607047C3F88420BFF34F8FBFF343
:107A78006F8F704700E100E000207047828803891B
:107A880040899BB280B2834236BFC0EB4200181ACD
:107A9800C01880B2824286BF101A80B20020704798
:107AA8000389428981889BB292B2934236BFC2EB66
:107AB80041029B1A9B1898B2884228BF0846704713
:107AC8000A4492B291424FEA400001D8824201DB57
:107AD800121A92B210467047054B064A013813F83D
:107AE800011B00F8011F9342F9D10820704700BF1D
:107AF8006000001068000010024AD2F80034002B21
:107B0800FBD0704700E00140034B1868A0F1080360
:107B180058425841704700BF30010010064B1B689F
:107B2800082B06D1054B1B68052B02D8044AD05CEC
:107B380070470020704700BF30010010340100106A
:107B48007D720200036803F01F025B09026004D023
:107B5800012B034818BF002070474FF0A040704722
:107B68000003005007B5019001A8FFF7EBFF019A49
:107B780001239340C0F8083503B05DF804FB00000A
:107B880007B5019001A8FFF7DDFF019B00EB83001B
:107B9800054BD0F80027134043F00303C0F8003723
:107BA80003B05DF804FB00BFF0F8FCFF11F001031F
:107BB80010B50ED18A07C1F3400314D50B4BD3F887
:107BC80020254260C3F820254368003B18BF0123E5
:107BD80009E04FF0A042D2F820450460C2F82045E1
:107BE8000268002AE6D0184610BD00BF0003005006
:107BF80007B5019001A8FFF7A5FF019B00EB8300E3
:107C0800D0F8003723F4403343EA0141C0F80017A5
:107C180003B05DF804FB4FF08043D3F80C04D3F8AD
:107C28000C3410F4803018BF03F0010070472DE9C0
:107C3800F84F074688461546DAB1C379068941895F
:107C4800B0F80490DB09B6B289B215D18E4239BFBB
:107C5800C1EB4904A419711A8CB238BFA4B24C45BF
:107C680036BFA9EB04040024A4B2A24228BF2546CB
:107C780005BB2846BDE8F88FC3884A45C3F30E0301
:107C880006D3A2EB090503FB05880E464D46EFE730
:107C98008E424FEA490236BF531A731A9B199BB298
:107CA8002B44934206DBA9EB050292B24846FFF744
:107CB80007FF064634464C4517D2FA883868A9EBC0
:107CC800040A1FFA8AFAC2F30E0BAA455A460BFB9E
:107CD80004000ED36A43414603F0D4FBB8882A4611
:107CE8003146FFF7EDFE3881C3E7A4EB0904A4B2DF
:107CF800E1E71AFB0BFA1FFA8AFA5246414603F0EB
:107D0800C1FBA5EB0903234413FB0BF2386892B2BD
:107D180008EB0A01E0E770B505890389428986887E
:107D28009BB292B2934236BFC2EB46029B1A9B1893
:107D38009BB29E420446ADB217D8C079C00914D18F
:107D480070BD9B1B9BB2B342FBD2E2882068C2F392
:107D58000E0202FB030003F095FBA08801222946CE
:107D6800FFF7AEFE20810120EAE72B46EBE7000093
:107D78007FB50023019308238DF805300C4BCDE91E
:107D880002011E68144612B933681046984701A9C3
:107D9800301DFFF7C0FF054614B933680120984726
:107DA80025B9044B1B68DB0700D500BE04B070BDC5
:107DB8008C5A0020F0ED00E02DE9F0434378023BB7
:107DC80085B005460E46052B13D8DFE803F0039C63
:107DD8002129A3A8744B1A786FF300021A701A7835
:107DE80000216FF341021A7059701A7861F3820208
:107DF8001A706E4B1F6816B93B683046984729467B
:107E0800381DFFF788FF0446002E6FD13B686BE0F2
:107E1800654B1A78D7076FD51A7842F00402E7E75E
:107E2800614A1378DC0767D513786FF38203137000
:107E3800DFE798424FF0240161D9D9F8002001FB0F
:107E4800032323B11B6A13B1696828789847013462
:107E58003878821CE3B2D2B29A42EAD8524C2378DC
:107E6800580726D523786FF3820323700023CDE9C2
:107E7800013303932B788DF8043005238DF80530F2
:107E88004A4BD3F800801EB9D8F8003030469847DE
:107E980001A908F10400FFF73EFF07461EB9D8F80C
:107EA80000300120984727B9414B1B68D90700D5F6
:107EB80000BEE378DA071FD50023019303932B78DC
:107EC8008DF8043003238DF805306B680293374B27
:107ED8001D6816B92B683046984701A9281DFFF779
:107EE8001AFF044616B92B680120984724B9304B6D
:107EF8001B68DB0700D500BE05B0BDE8F0831B1A80
:107F080001FB03839EE72B4FDFF8B480DFF8AC90CA
:107F180000249DE7284A13780133DBB287E701790B
:107F280011F07F033FF465AF1F4C224A4FEA430C20
:107F380004EB430303EBD11312781B7D93424FEA02
:107F4800D11726D21D4A126803EBC30312EB830331
:107F58003FF44FAFDA69002A3FF44BAF64443C4426
:107F68002034A2796FF30002A271A2796FF3820222
:107F7800A271DF696A79AB682878B8470028BBD155
:107F8800A37943F00103A371A37943F00403A37118
:107F98002FE7901CC0B28342BFF42BAF9B1A084A4C
:107FA800242000FB0323D5E7545A00208C5A0020D4
:107FB800F0ED00E01C550020505B00201855002013
:107FC8008872020001281FB500F0B28002284BD049
:107FD800002843D16E4BD3F80025002A3ED14FF438
:107FE8008002C3F808234FF40062C3F80024BFF3EB
:107FF8006F8FBFF34F8F674B1B68082B10D1664BF1
:108008001B68052B02D8654AD35C4BB1644B654AA3
:108018001868032120BB49F2753018601160186098
:10802800FFF772FD48B15E4B5F4A1868C021C8B9B6
:1080380049F27530186011601860554B0122C3F879
:108048000025BFF36F8FBFF34F8FFFF7E4FD28B90B
:10805800564B18601B684FF080431A6004B010BD7F
:108068001160DDE71160E8E7494AD2F804351BB131
:10807800FFF7D1FD0028F1D1D2F800341B05FBD55C
:108088004FF40063C2F80034BFF36F8FBFF34F8F14
:10809800FFF73AFD48B1424B434A1868002841D1DE
:1080A80049F275311960106019603A4B1B68082B4A
:1080B8000FD1394B1B68052B02D8384AD35C43B122
:1080C800374B384A186880BB49F27531196010601F
:1080D8001960FFF719FD48B1354B40F2E3721A6099
:1080E80040225A60BFF36F8FBFF34F8F284B314840
:1080F80080210122C3F81C15C3F804232E4AC0F8B6
:1081080084111278FF2A1A4600D04160FFF783FDD8
:108118000028FBD00123C2F80435BFF36F8FBFF3EB
:108128004F8F9BE700231360BFE700231360D0E75E
:10813800174BD3F80025002A90D00022C3F8042555
:10814800BFF36F8FBFF34F8F1A498024C1F8844063
:10815800BFF34F8FBFF36F8FD3F80013C3F8081323
:10816800C3F80025BFF36F8FBFF34F8F134B186011
:10817800134B5968C1F30801891A4FF4007318BFEB
:10818800012101A8ADF80430FFF716FE66E700BF2D
:1081980000700240300100103401001077720200B4
:1081A80000EC064014ED064014EC064000010040C7
:1081B8000078024000E100E01C3400200400004088
:1081C80000ED00E0FFF7FEBE70B50D46CB6CD0F8B1
:1081D8005811044671B9DB0702D4D0F820314BB9E5
:1081E800EB6C43F00403EB644FF48003C4F80433EE
:1081F800002070BDD5E90A365AB1296CEA6BA86B24
:10820800761A964228BF16461944324603F03AF9C0
:10821800AB6B4FF0FF326A641BB1C4F84435C4F845
:1082280048650023C4F82031D4F82021C4F8583117
:10823800D4F85821C4F85031D4F850310823C4F880
:10824800003501204FF48003C4F80433A060D0E760
:1082580002484022002103F023B900BF145A00202D
:1082680002484022002103F01BB900BF145A002025
:108278000C4B00221A609A800B4A127812F0010106
:1082880004BF5983198312F0020204BFDA849A8466
:1082980093F82320D10904BF42F0800283F82320F9
:1082A800704700BFB05500208572020008B50F4B1B
:1082B800A8220021184603F0F3F80821817300F181
:1082C8002801FF2201610A49827141614FF4E132BC
:1082D80000F168018260C1610022064942838281FF
:1082E80002830162C284828408BD00BFB0550020A9
:1082F80040000100400001802DE9F041194D1A4E5F
:108308001A4F8046002429788A1CE3B2D2B29A42D6
:1083180010D838220021164803F0C2F81022FF2195
:10832800144803F0BDF8BDE8F04113481222FF21BC
:1083380003F0B6B899424FF024020AD9396802FB13
:1083480003134BB90D4B1B68DB0700D500BEBDE816
:10835800F0815B1A02FB0363DB68404698470134EF
:10836800D1E700BF1C550020887202001855002074
:10837800545A0020585A0020685A0020F0ED00E0B6
:1083880001230360BFF36F8FBFF34F8F074B9842F2
:1083980002D0043B984207D1BFF35B8F044B002205
:1083A80083F82021BFF35B8F704700BF50700240F5
:1083B800AC560020F0B42C4ABFF35B8F02F59073E3
:1083C8004FF00104D3E84F1FC3E8454F002DF9D102
:1083D800BFF35B8F11F0FF0F14460BD0234B5A6885
:1083E800C2F30802003A0146F0BC214818BF012236
:1083F800FFF7BEBC08281F491AD1D1F8C034D803EA
:1084080008D5BFF35B8F002384F82031BFF35B8F5F
:10841800F0BC704792F80B010028F2D0D2F8002186
:108428001548C1F8A027C1F8A437F0BCFFF7A8BFCA
:1084380002EB401500F59473460151F82340EF888C
:10844800AB88DB1B9BB2A4B2A34228BF2346945936
:10845800142202FB0011C1F80047C1F80437074B8A
:1084680003EB8000E1E700BFAC56002000ED00E020
:1084780045850200007002404870024028700240A2
:1084880010F07F0108B507D10D4B01225A65BFF3E3
:108498006F8FBFF34F8F08BD0829F8D0084B40F401
:1084A8008072C3F81825C309F1D1064A02EB4112BC
:1084B800907A0028EBD093720846FFF77BFFE6E737
:1084C80000700240AC56002010B50446FFF7D8FFF4
:1084D800094B04F07F0003EB400303EBD41090F842
:1084E800263043F0020380F8263090F8263043F017
:1084F800010380F8263010BD545A00200E4B9968AD
:108508005A6B83F82C00022083F8380093F839005E
:108518008A1A9A6220B9052083F8390020205887E2
:1085280049B142B11A7BD20914BF93F82E0093F8CF
:108538002F00FFF7C9BF7047145A0020C0B2FFF7D9
:1085480039BF000010B4114BBFF35B8F01464FF0E9
:108558000104D3E84F2FC3E84C4FBCF1000FF8D10A
:10856800BFF35B8F12F0FF0F0BD0094B09485A6815
:108578005DF8044BC2F30802003A18BF0122FFF766
:10858800F7BB5DF8044BFFF7FBBE00BFCC570020DC
:1085980000ED00E04D8502000D4B03EB4013D98A36
:1085A8009A8A521A198B92B28A4228BF0A461969C6
:1085B8001423434303F1804303F51C33C3F8001627
:1085C800C3F80426034B03EB8000FFF7BBBF00BFD3
:1085D800AC560020047002402DE9FF47434C064684
:1085E80000F07F0004EB400505EBD6152035AB798C
:1085F80013F001034FEAD61C4FEA400E06D0FFF7EE
:108608002DF90346184604B0BDE8F087AF79DFF8C6
:10861800F48047F00107AF710EEB0C074FEA07191A
:1086280008EB0717454697F80BA0BAF1000F18D0CA
:108638002F490A68D00700D500BE04EB0E02624439
:1086480092F826006FF3000082F8260092F82600C0
:108658006FF3820082F826000A68D207D2D500BEDE
:10866800D0E748F80910BA80FB80F8B9F2B9214A76
:10867800D2F88024C2F3C012944517D01E4A51681C
:108688008DF80860C1F3080100394FF4E06201A8D1
:1086980018BF0121ADF8042003938DF80930FFF7C6
:1086A8008BFB1648FFF74EFF0123ABE70124BCF113
:1086B800000F18D105EB4011CC7208B91048F1E74A
:1086C800BFF36F8FBFF34F8F8A7A02F0FF0342B177
:1086D800CA7A02F0FF04002A94D081F80AC0FFF792
:1086E80069FE23468EE7FFF757FFFAE7545A002042
:1086F800F0ED00E00070024000ED00E05070024034
:108708004C700240AC5600202DE9F047364B5A78A1
:1087180012B90020BDE8F0871B785A07F9D4334E08
:1087280006F11C00FFF7BCF90028F2D0B078FEF77C
:10873800A3FF0028EDD0B38CF58C378C9BB2ADB27B
:10874800AB4236BFC5EB47045C1BE418A4B2FCB1CE
:10875800A74206D2BB422CBFDD1BDD19ADB2F584A2
:108768003C46402C28BF4024AF4225D9728CD6F80D
:108778001C90A7EB05081FFA88F8C2F30E0A4445B7
:1087880052460AFB05911AD81948624302F07AFE4C
:10879800F18C224689B23846FFF792F9F084B07816
:1087A800F4B113492246FFF717FFD8B9114B1B68DC
:1087B800DB07AED500BEADE7ED1BADB2D4E70C4B81
:1087C80018FB0AF81FFA88F84246184602F05AFEC3
:1087D800E21B2A4412FB0AF292B249464044D5E70A
:1087E800FEF72EFF204695E7545A0020B05500208A
:1087F80060550020F0ED00E04FF6FE734FF6FF7273
:10880800994288BF114610B58AB201460648FFF75B
:108818000EFA04460448FFF743F93F2801D9FFF749
:1088280073FF204610BD00BFCC55002010B5124B79
:108838005A78F2B11B785B071BD4104CE378C3B1AC
:1088480004F11000FFF71AF93F2812D9E078FEF773
:1088580013FF70B104F11000FFF710F93F28E0781A
:1088680005D9BDE8104006494022FFF7B5BEFEF71E
:10887800E7FE002010BD00BF545A0020B05500206C
:1088880020550020F8B54B79022B074602D0002569
:108898002846F8BD8B79022BF9D11D4EB37853BB0E
:1088A8008B78307073700C7809250C4403E02378BA
:1088B8001D44ADB21C446378242B16D19542F6D9D9
:1088C8006378042B0ED163790A2B0BD12678114BD0
:1088D800A1195A1C3846FFF78DF860B10E3516FA03
:1088E80085F5ADB2FFF7A2FFD2E7052BE8D1204608
:1088F800FEF7BEFF28B9084B1B68DB07C7D500BECB
:10890800C5E7A378337123781D44ADB21C44D7E77B
:10891800B0550020B2550020F0ED00E0044B0549A9
:1089280093F82F00002283F838201F22FFF754BE47
:10893800145A00201458002010B54C79082C01D086
:10894800002010BD8C79062CFAD1CC79502CF7D1A7
:10895800162A05D8114B1B68D907F1D500BEEFE7D9
:108968000F4A8C7882F82D40D0770C7802F12E03CC
:1089780021442F32FFF73EF828B9084B1B68DA0765
:10898800DED500BEDDE7FFF7C9FF20B9034B1B6842
:10899800DB0700D500BE1720D3E700BFF0ED00E0ED
:1089A800145A002070B40B4C0B4E626BA3689B1AD0
:1089B800A362032384F8383004F120030FCB354633
:1089C80007C52B7094F82E0031460D2270BCFFF7B6
:1089D80003BE00BF145A002014580020F0B52C4CD8
:1089E800E18AA56849BA89B285B011B1B5FBF1F140
:1089F80089B2666BD4F81100B6FBF1F3AF1B00BA6D
:108A0800B7F5007F184428BF4FF400770F2801FB03
:108A180013610CD9002384F83C30022384F83930E0
:108A280001203A236387FFF769FD05B0F0BDCB1934
:108A3800420203EB4020B0F5005FEBD8154B164817
:108A4800114419443A4602F01DFD0021AE4294F843
:108A58002E0084F83C100BD00F49BAB2FFF7BCFDCA
:108A68000028E2D10D4B1B68DB07DED500BEDCE732
:108A7800E37F8DF804308DF80800072301A88DF8EE
:108A8800053003918DF80910FFF796F9CDE700BF7F
:108A9800145A0020B034002014580020F0ED00E0F3
:108AA80008B50B4B596B9A6893F82F00521AB2F518
:108AB800007F28BF4FF40072064992B2FFF78CFD81
:108AC80020B9054B1B68DB0700D500BE08BD00BFF9
:108AD800145A002014580020F0ED00E02DE9F04170
:108AE800AF4C94F838C0BCF1010F88B08E461D46D3
:108AF80000F0A581BCF1030F00F00082BCF1000F6B
:108B080042D194F82F308B4201D0012013E01F2D61
:108B180005D1A44EA44B32689A4237460ED094F839
:108B28002E00042384F83830FFF7CEFC94F82F0089
:108B3800FFF7CAFC002008B0BDE8F0810FCE25463B
:108B48000FC596E80F0007C525F8023B1B0C2B70D4
:108B5800964B23626368A26884F82CC0C4E9093C78
:108B6800012384F83830E37B03F0FD012829C4E9A8
:108B78000C2C3AD1E18A49BA89B212BB002900F01B
:108B880093800220FFF7BAFC94F83830022BBCD14E
:108B980094F82E00864B00F07F0203EB420303EBB0
:108BA800D01320339B799A07AFD4A268636B9A429B
:108BB80040F2C881237BDB0900F0C481FFF784FC05
:108BC800A3E7282B0BD1207BC009DAD0A1B18A42B8
:108BD800D7D3282B40F07681FFF700FFD4E72A2B64
:108BE800F4D1207BC009F1D0CBE7A2B1217BC90920
:108BF80011D1B2F5007F01D90120C3E7694992B2CA
:108C08007046FFF7E9FC0028BED16A4B1B68DB07FA
:108C180090D500BE8FE7252B94F80D8007D8192B27
:108C28000FD8032B00F0DA80122B79D043B394F8D5
:108C38003930002BE0D1052384F8393020236387AD
:108C4800DAE71A3B0B2BF2D801A252F823F000BF47
:108C58009F8D02009B8C0200378C0200378C02002B
:108C6800B98C0200378C0200378C0200378C020066
:108C7800378C0200FD8C0200378C0200D78C020072
:108C88004D4B1B786BB1022384F839303A23638744
:108C9800CDE7E37C9F0704D5DE0702D4464B0122CB
:108CA8001A70A368002BA7D1022384F838306BE729
:108CB800424B002BF5D0227DE17C4046AFF300808B
:108CC8000028EED194F83930002BDCD0AFE74FF014
:108CD80070654FF40033C7E900530820A268002AE2
:108CE8008AD0824228BF024622632E4994F82E0079
:108CF80092B286E700220392ADF8142008228DF87C
:108D08000F204FF080520492022203AB8DF81420FA
:108D1800ADF8162093E8070087E807000C20DDE788
:108D2800242200211F4802F0BBFB254A254B10686E
:108D380051683B601F233B7101AB03C3224B03AA5D
:108D480003F10807164618685968154603C508331D
:108D5800BB422A46F7D118681B7928602B7101A8F5
:108D68001A4B009302F0D8FB01A90246184802F0FA
:108D780089FB304602F0D0FB31460246154802F026
:108D880081FB684602F0C8FB69460246124802F0B9
:108D980079FB2420A2E7032303933B6004209DE78B
:108DA800145A002014580020555342435553425337
:108DB800545A0020F0ED00E0705E00200000000032
:108DC800007202000080020208720200312E300098
:108DD8001C5800202458002034580020122200215A
:108DE80003A802F05DFB94F83910628FADF81820E3
:108DF800F0238DF80C304FF0000361F303038DF876
:108E08000E300A238DF8133003AD0FCD534E0FC625
:108E18002B683380524B83B14FF40072A6F11001D6
:108E28004046AFF300800023984284F839306387C6
:108E3800FFF6FDAE3FF435AF50E71220F3E7B3F588
:108E4800007F06D9474B1B68D8077FF573AE00BE75
:108E580070E6E37B666B282B06D1236B35449D4275
:108E68006563BFF421AFB7E62A2B2ED1E28A52BA46
:108E780092B21AB1A068B0FBF2F292B2D4F8110023
:108E8800B6FBF2F300BA18440F2802FB136308D9A3
:108E9800022384F839303A236387002384F83C306E
:108EA800AAE603EB402330482C492A46184402F02E
:108EB800E9FA002384F83C30236B35449D4265630E
:108EC800BFF4F2AEFFF7ECFD5EE6237B3544DB0929
:108ED800656307D1052384F839306046202363870A
:108EE800FFF70CFBD4E90C329A42BFF4DDAE1D4B00
:108EF8001B68D9077FF548AE00BE45E694F82E30CA
:108F08008B427FF441AE0D2D7FF43EAEE37B282BE0
:108F180009D02A2B0FD0154B53B1607B04F10F01F8
:108F2800AFF3008004E0124B13B1607BAFF3008015
:108F3800FFF7F4FC67E60F4B002BF9D0607BAFF32B
:108F48000080F5E7FFF72EFD00287FF4DEADFEF781
:108F580085FC00283FF459AED7E500BF145800201F
:108F680000000000F0ED00E0B03400200000000038
:108F780000000000000000002DE9F3411D46354BBC
:108F8800DA788A420E461C462DD09A788A4202D058
:108F98001B798B4255D1A378B34248D12E4B13B1DC
:108FA8000020AFF30080FFF7AFFB00283FD12B482C
:108FB800FEF776FD00283AD1002D38D015F03F0293
:108FC80035D1A0780192FEF757FB019A00282ED0E0
:108FD800A0781146FFF700FB48BB214B1B68DA0756
:108FE80034D500BE33E01F4F03F11000AAB2394652
:108FF800FEF71DFE1C4B23B9238B638BFFF716FC72
:10900800C9E7A379FF2BF7D007EB0508B845F3D0DC
:10901800A17917F8013B9942F8D1228B638B92B260
:109028009BB29A42F2D00020AFF30080EEE723799A
:10903800B34204D10D4B13B10020AFF300800120DF
:1090480005E0074B1B68DB0700D500BE002002B017
:10905800BDE8F081B055002000000000CC5500208C
:10906800F0ED00E0205500200000000000000000A6
:1090780013B5124B9889D98993F90040421A92B2D4
:10908800402A28BF4022002C0EDA884212D0996864
:109098000B48019202F0F6F90949019A802002B0C2
:1090A800BDE81040FFF798BA88424FF0000003D19E
:1090B8000021F4E78020FBE70149F0E798560020FB
:1090C80058560020F8B5184D0C46074608684968F8
:1090D800AA602E4603C60021E981E1888B4228BF99
:1090E8000B46AB81E18879B143B13AB90F4B1B68A4
:1090F800DA0701D40020F8BD00BEFBE73846FFF7C9
:10910800B7FF58B10120F6E794F90030002B0A4662
:10911800ACBF80200020FFF75FFAF2E7034B1B6823
:10912800DB07E7D500BEE6E798560020F0ED00E043
:1091380010B40A4C08680B464968224603C200224C
:10914800C4E9022293F900305DF8044B93421146BA
:10915800ACBF80201046FFF73FBA00BF98560020EA
:10916800012973B50646154613D1137803F07F021B
:10917800022A38D16C78012C35D16A88002A32D17C
:10918800324AA88892F83830042BC0B203D1FFF7CE
:109198009BF901200EE092F82E1081420CD1022B8F
:1091A800F7D1FFF7FFFB0028F3D1294B1B68DB073A
:1091B8004AD500BE02B070BD92F82F209042E8D187
:1091C800002BE6D1234B00F07F0203EB420303EBB5
:1091D800D01020308379D907DBD483799A07D8D483
:1091E800FFF79CFBDFE703F06003202B2CD16B78A3
:1091F800FE2B0ED0FF2B27D16B882BBBEB881BBB1C
:10920800124A294693633046C2E90C33FFF790FFB0
:10921800BFE76B88C3B9EB88012B15D18DF80730F0
:109228000D4B1BB1AFF300808DF807009DF8073098
:1092380053B1013B8DF807300DF107020123294690
:109248003046FFF73FFFA4E70020B3E7145A002099
:10925800F0ED00E0545A00200000000038B50B463D
:109268001146127802F06002202A04D12D4A8C8817
:109278005578A54246D0002037E0012B05D12A4A6F
:109288000723FFF71FFF01202FE0032BFBD1274BFC
:10929800002BF8D024490020AFF30080F3E7012B1E
:1092A800F1D1ECE7012B02D1FFF742FFEBE7032BEB
:1092B800E9D11F4C92F8233024784988517114F071
:1092C80004044FEAD3100AD001F0010181F0010132
:1092D8008142D8D061F3C71382F82330D3E700283E
:1092E800D1D064F3C71382F8233038BD012BDBD00B
:1092F800032BC8D10F4B002BC5D049880020AFF3F2
:109308000080C0E74C78203C032CB4D801A555F860
:1093180024F000BF83920200A7920200AD920200DF
:10932800F5920200B0550020B8550020000000005A
:10933800857202000000000010B5164BD3F84021DA
:10934800A2B1154A0024C3F84041116811B1C3F80D
:1093580040451460A047114B1A68A2B1012A0D4973
:1093680012D13222C1F8402502221A60094BD3F8E3
:10937800442112B10022C3F84421D3F8482112B184
:109388000022C3F8482110BD022A04BFC1F8404595
:109398001C60EBE700A0014024630020206300204C
:1093A800114BD3F84021EAB10022C3F840210F4AFB
:1093B800136803F5742303F5107313600C4A1368DC
:1093C80003F57A7313600B4A1368013313600A4A72
:1093D800136801331360094B01221A70BFF34F8FD2
:1093E800BFF36F8F704700BF00A00040F85F0020F8
:1093F800FC5F002014630020605C002001620020F4
:1094080010B4314B196811B15DF8044B08472F4B64
:10941800D3F8042112B1C3F804110122D3F80C11B6
:10942800002935D02A4900220A60C3F80C21294AAC
:1094380011780229114606D01078012806D1264A4B
:109448001368013313605DF8044B704710780428E3
:1094580012D1224AC3F804251C4B1A46D3F85005EA
:10946800022803D0D3F850050328F7D11123C2F8F6
:10947800003205230B70E6E711780529CCB2E2D15A
:109488001548147001680122013101609A60DAE719
:10949800002AD8D10E490A60C3F80021C3F8042174
:1094A800C3F80821C3F80C21C3F81021C3F814210C
:1094B800C3F81821C3F81C21C3F82821C3F83021A8
:1094C800C3F834210A60BEE708620020001000409B
:1094D80004620020685D00201063002010620020F4
:1094E8002DE980484FF080430022C3F80021012273
:1094F8009FB01A60D3F80021002AFBD00121002474
:10950800D9602F20C3F818450EAE9960FEF738FBD6
:109518002F2330460E93FEF715FB0E9B9940C0F89B
:109528000C15222330460E93FEF70CFB0E9B00EB26
:1095380083009F4BD0F80027134043F00C03C0F87A
:1095480000379C4B4FF47A721B68B3FBF2F3013B74
:10955800B3F1807F08D2984A5360984BE02183F892
:109568002310072394601360954C96492079502264
:1095780002FB00F901EB0907884697F84850002DCF
:1095880040F0898000EB8000294608EB001001F0CC
:1095980087FFC7E90E5548F809507D602568D5F85A
:1095A8004C21012387F84830002A4ED121795023D5
:1095B80003FB01811920CB6C43F00073CB64FEF7E9
:1095C800D1FA1920FEF7DCFA182530460E95FEF779
:1095D800B9FA0E9B00EB8300754BD0F800271340B7
:1095E800C0F80037CB6C43F08073CB6423684FF02E
:1095F800EB72C3F8242519210022C3F86C25C3F89F
:109608000C15C3F81455C3F81021D3F81011C3F87A
:109618002021D3F82011C3F82421D3F82411C3F84A
:109628004421D3F84411C3F85821D3F8582143F3FF
:109638000732002AC3F3073380F28880624A03F0B6
:109648000F031A44E023137695E00822C5F8002595
:109658006B605E4B642743F00109D5F84431002B59
:1096680072D1D5F82431002B6ED14FF42070C84741
:10967800013FF2D10023C5F84C31D5F84C21C5F88B
:109688001031D5F81021C5F84431D5F84421C5F872
:109698000035002F8AD14E4B402283F827234D4AAC
:1096A800117889B94FF08040C0F88015C0F8781556
:1096B8001968CF0706D4E02183F800130121C3F805
:1096C80080111960012313704FF0804342494348C9
:1096D8004FF46072C3F808230860C3F80423D3F872
:1096E8003844E50702D50020FEF76CFCA00702D538
:1096F8000220FEF767FC3A4B01931A78FF2A40F0E4
:109708009B8038223748384C002101F0C9FE374B7E
:1097180000221A70364BDA819A81364A1360364B2A
:10972800002B00F083812046AFF30080334B186094
:109738002378FD2B40F27A81314B1B68D90700D57D
:1097480000BEFEF78BF877E0012793E702F160414E
:10975800520901F561419200E02002F1604281F86E
:10976800000302F56142012103F01F0301FA03F32C
:10977800C2F8803113602568002308228DF838303C
:10978800C5F80025C5F84465C5F848350123AB6020
:10979800EB600E4B0A2743F00108D5F85831002B2F
:1097A80040F0A2874020C047013FF6D173E700BFD1
:1097B800F0F8FCFF0034002010E000E000ED00E0CD
:1097C80004340020A45F0020FCEC00E0E0720200FA
:1097D80000E100E000620020F45F0020CD8102007B
:1097E8001C340020545A00201C550020505B0020D7
:1097F8000C3400208C5A002000000000185500206E
:10980800F0ED00E0994240F20D81D9F8002007FB05
:109818000323002B90D05B680135002B8CD0984730
:1098280021788A1CEBB2D2B29A42EBD8019A002373
:1098380013708F4B80225A608E4B8F498C480022C0
:1098480003274FF0040EC3F80425C3F80875C3F8BE
:1098580010E5C3F840154FF48031C3F804134FF0F6
:10986800400C0121C3F8001280F80AC34FF4806449
:109878000460D960196003F5C04347F6FF74C3F864
:10988800044502257D4CC3F80046C3F80C15196041
:10989800C0F88050BFF34F8FBFF36F8FA3F57043AD
:1098A800C3F8FC1FC3F80CE54FF0150EC3F808E524
:1098B800DFF808E2C3F81025C3F824E50EF1443EAA
:1098C800C3F828E5DFF8F8E1C3F81CE5C3F820E59C
:1098D8004FF4847EC3F82C25C3F83015C3F814E57B
:1098E800DFF8E0E1C3F818E5C3F854C54FF01E0CE3
:1098F800C3F844C5C3F83475AA27C3F83C7540F2C9
:109908000717C3F838754FF0FF37C3F81021C3F8AD
:109918000C21C3F808730827C3F80473584F3A603A
:1099280080F801230560574A4FF448601060564894
:10993800016056490868564908605649C3F8041535
:10994800D3F85015039403291846049209D0D3F884
:109958005035012B05D0D0F85035AB4201D0FDF77A
:10996800F5FE1123C0F800324B4B0122052142605D
:1099780019704A4B0021C3F80012C3F804251A6075
:10998800474B484A1A60484B0BB1AFF30080474B2E
:10999800039AC3F80026019B1B78FF2B00F0A280D6
:1099A800434B1C68002023689847A389E1892089D4
:1099B8009BB289B28B4236BFC1EB40025A1AD21809
:1099C80095B29DB1A84205D283422CBF1B1A1B1821
:1099D80099B2E181884230D962896368C2F30E0284
:1099E80002FB013107A801F04DFD0125E18920891D
:1099F8002A4689B2FEF764F82368E0810120984777
:109A0800002D6FD09DF81D30013B072B00F2C68456
:109A1800DFE813F0160024004B053F053F055E0004
:109A28009E0443055B1A07FB0383F4E6DFF898807E
:109A3800DFF8989000252427F2E60B1A99B2C9E7B7
:109A48009DF81C00FEF758FC14221A48002101F06A
:109A580027FD194B9DF820209A70A1E79DF81C005E
:109A6800FEF74AFC14220021124801F019FD97E77D
:109A780000E100E000A0004040420F003546526E71
:109A880008620020203400200C62002010630020AF
:109A98007C5F002010620020685D002000D000403C
:109AA800B054002059165600000000000000014084
:109AB8008C5A002098560020545A00201122334412
:109AC800A70DE60EFF000403887202001855002057
:109AD800B14A1378002B40F0D080B04B1B68D807F0
:109AE80000D500BEAE4B1C68AE4B1968AE4B1F6864
:109AF800002C00F04F858F4224D0FDF7F7FDAB4BCB
:109B08000528D3F8003404461CDDDBB1A84DA94A6A
:109B1800D5F8023012681BBA002A40F0D2848BB103
:109B2800A54C21683F290DDCA4480546914200F365
:109B3800C08445F82130FDF7F7FDA14B43F821001B
:109B4800013121609F4B01229A649F4AD3F848351E
:109B58001268049813449D4A07681168581AB84255
:109B680001D2994262D31360924B93491A680968EB
:109B780001328A421A60C4BF00221A601D68944BE1
:109B88001C68002D40F0DA84FDF7CEFD8C4A834630
:109B98002B46A84647F2305A994200F3AF84B8F1F1
:109BA800000F01D0844B1960DFF82C8200239C42FF
:109BB80088F8003088F8023088F8033088F80430D4
:109BC80088F805304FF0010388F806304FEA17632C
:109BD80088F808304FEA2743D4BF1022103488F899
:109BE80009304FEA272388F80A30D4BF88F80120C3
:109BF80088F8014088F8071088F80B70FDF794FD85
:109C0800030E88F80C30030C88F80D30030A88F826
:109C18000E3088F80F006F4A1368002BFCD16E488D
:109C28004178FDF7BBFD0DB9694B1D606B4B1B6897
:109C3800002B40F002856A490B78002B3FF4A7AE51
:109C4800FDF740FD00283FF4A2AE664B5B79DB07C9
:109C58007FF59DAE00230B70634B644A1B6840215F
:109C6800304601F025FC304601F056FC01463046EE
:109C7800FEF7C2FDFEF748FD89E61378013BDBB22B
:109C88001370127802F0FF03002A7FF489AE584C53
:109C9800DFF870812278C8F8103042F00102227093
:109CA80094F826209DF81C5063F3000284F82620BF
:109CB80094F8262063F3820284F8262094F827205B
:109CC80063F3000284F8272094F8272063F38202C4
:109CD8009DF8203084F8272003F06002602A05D11F
:109CE8002E4B1B68DC0706D500BE04E0402A09D1CC
:109CF800404BC8F810300020FEF7C2FB8020FEF76A
:109D0800BFFB4DE603F01F03012B00F06082022B1E
:109D180000F09582002BE3D1202A20D19DF8243031
:109D28000F2BE8D81C44344B21791B7899420CD26C
:109D3800324B1B6801EBC10113EB8101DBD008AA90
:109D480014312846FDF782FE86E19A1CD2B2914270
:109D5800D1D2C91A2A4B242202FB0131EFE7002A8B
:109D6800BED19DF82130092BBAD801A252F823F0B0
:109D7800B5A10200A3A10200E99C020087A102008C
:109D8800E99C0200119E020025A00200E99C020045
:109D9800459E02004F9E0200505B0020F0ED00E05F
:109DA8000C6200207C5F002010630020001000403F
:109DB800715E00206C5D0020585B0020006100206F
:109DC8000060002000A00040F85F0020785F0020BD
:109DD800645D002004620020645C00201863002099
:109DE80001620020B0550020605C0020287202004B
:109DF800545A0020817A02001C5500201855002072
:109E08008872020098560020DDE908010022C8E99E
:109E18000222C8E90001A94BD3F80014D3F80004C2
:109E28000143C3F80014C3F858214FF48002C3F863
:109E38000423237843F002032370B1E563788DF897
:109E480038300123BCE19DF822B063789B4500F0CF
:109E58009F816378002B50D0994B984F4FF00008A2
:109E68004FF4001283F82181C7F80823954A80210E
:109E7800C2F88410BFF34F8FBFF36F8F4FF0010903
:109E8800CA4609F10C0209F102010AFA01F10AFABB
:109E980002F20A438949C1F808234FEA890202F10C
:109EA800804202F51C3203EB4910C2F804800021FD
:109EB800C2F8288009F10109202201F0F1FAB9F16C
:109EC800080F7F4BDDD1804BC7F808332022C7F835
:109ED8001C850021C7F824807C48C7F8488001F019
:109EE800DFFAC7F814A5C7F810A5764B80225A6088
:109EF800A7782846FEF700FAA77084F801B0BBF1EE
:109F0800000F00F0458123787149DFF8F4B123F0A0
:109F1800300323704B780B2B03BF0B7891F8039019
:109F2800C9184FF001094B78042B0BD0694B1B68FB
:109F3800DA0771D4674B1B68DB0700D500BE002326
:109F48006370D8E6644B5A1A92B24FF0000A9BF835
:109F58000030981C5FFA8AF7C0B28742E6D29F4267
:109F68004FF0240831D25D4B1B6808FB0738B8F165
:109F7800000FDBD0D8F81030059228460291984798
:109F880008280299059A44D9824242D3B9F1010FAF
:109F980006D1D8F81020524B9A4208BF4FF0020958
:109FA8004FF0000E5FFA8EF34B4513D308448842F6
:109FB8001FD89BF800300233DBB29F42B6D2464B23
:109FC800984280F0E5800146A4E74648FB1A08FB62
:109FD8000308CFE791F802C0434A634452FA83F377
:109FE8000EF1010E93F804C0BCF1FF0F9ED11F7152
:109FF800D8E74B78052B09D191F802C03A4A0CF002
:10A008007F0302EB430303EBDC131F750B78194442
:10A01800CDE70AF1010A9AE700BE8BE7BDF82230C6
:10A028001A0A511E06293FF666AE01A050F821F023
:10A0380055A0020069A0020075A00200FF9C020062
:10A04800FF9C0200FF9C020069A00200274A12231D
:10A0580008A92846FFF736F800287FF4A1AC4AE69D
:10A06800022A7FF448AE224A5388F1E713F0FF032F
:10A0780016D0032B46D0052B3FF63DAE1D4A52F8AD
:10A088002340204601F048FA1B4A202828BF2020F8
:10A098000023984209D0E15C013322F81310F8E755
:10A0A800164A154B12885A800120431C5B00124A3D
:10A0B8009BB243F440711180CAE700BF00700240B0
:10A0C800AC56002000E100E000083000AC5700204A
:10A0D80001730200F0ED00E05A73020018550020E9
:10A0E8008D88020088720200545A0020E67202002D
:10A0F800F87202006C730200D057002083720200CD
:10A108001C55002010210AA8FDF7E6FCC64F1028B0
:10A1180003460AAC28BF10234FF0000843452CD053
:10A12800C24A02F1100AB646D14610685168F44690
:10A13800ACE8030008325245E646F6D114F801CBE4
:10A148001EA90CF00F020A440DF1380A12F8402C2F
:10A15800BA80B64A10685168D646AEE8030008329D
:10A168004A45F246F6D11EAA02EB1C1C08F101086A
:10A178001CF8402C7A800437D0E7580095E7BDF8E2
:10A188002230012B7FF4B7AD237843F00803237006
:10A1980008A92846FEF7CCFF02E4BDF82230012BBF
:10A1A8007FF4A9AD23786FF3C303F0E72378C3F3F3
:10A1B80040129B0803F002031343ADF83830022322
:10A1C800324608A92846FEF77DFFFFF7E9BB9DF850
:10A1D80024300F2B3FF68FAD1C44954B21791B780B
:10A1E800994221D2934B1B6801EBC10113EB81010A
:10A1F8003FF481AD08AA14312846FDF727FC002852
:10A208007FF4CEAB9DF8203013F060037FF473AD7C
:10A218009DF82120A2F10A0101293FF66CAD0A2A16
:10A22800C8F81030B4D10AE69A1CD2B29142BFF4F1
:10A2380062ADC91A804B242202FB0131DAE79DF88E
:10A24800240000F07F0CBCF1080F3FF649AD04EB89
:10A258004C07DFF8DCE107EBD0179EF800E03F7D04
:10A2680077454FEAD0114FEA4C0318D207EBC70ED7
:10A27800704F3F6807EB8E0732BB9DF8212002F034
:10A28800FD0EBEF1010F23D0002A7FF429AD6B4AE1
:10A298001344194491F82630C3F340038DE70EF1B7
:10A2A80002095FFA89F94F4580F01982A7EB0E077A
:10A2B800DFF884E14FF0240909FB07E7002ADCD026
:10A2C80008AA07F114013CE5002F3FF414ADF7E7A5
:10A2D800BDF822E0BEF1000F25D1012A35D110F0DA
:10A2E800770F11D0564A40F4807EC2F80C05C2F8A8
:10A2F8000CE5C2F8180519B90CF5947C42F82C1035
:10A30800BFF36F8FBFF34F8F4C4A1344194491F832
:10A3180026306FF3410381F8263091F826306FF329
:10A32800000381F82630002F3FF43AAB07F11401FF
:10A3380008AA2846FDF78AFB0023C8F8103094F8CD
:10A348002730DF073FF52CAB22E7FEF7BDF8EAE739
:10A358009DF82010394B01F07F0503EB450303EB13
:10A36800D113CA0993F826406FF3000483F82640F6
:10A3780093F826406FF3820403F1200083F8264007
:10A38800002D65D12F4C9DF81C702378DDF82480B2
:10A39800B2EBD31F14D0B8F1000F07D02A4B1B68BB
:10A3A800D9077FF5FDAA00BEFFF7FABA2369002B8B
:10A3B8003FF4F6AA2246032138469847FFF7F0BA39
:10A3C80094F90030002B07DBA06800283FF4E8AAC6
:10A3D8001E49424601F056F8A268E38942444344C4
:10A3E800A260E2889BB29A42E38102D0B8F13F0FA3
:10A3F80016D823696BB994F900300022002B114656
:10A40800B4BF28468020FEF7E7F800287FF4C8AAE2
:10A41800C4E70C4A0221384698470028EBD16BE480
:10A428003846FEF725FEF0E7D057002039720200C3
:10A438001C5500201855002088720200545A00202C
:10A448000070024098560020F0ED00E058560020B9
:10A45800AB4A1B7D1278934210D2AA4A126803EBCA
:10A46800C30312EB83033FF438AB9C699DF82120AA
:10A47800099B9DF81C00A047FFF792BA901CC0B238
:10A488008342BFF42AAB9B1A9F4A242000FB032374
:10A49800EBE79E4B1B78FFF783BA089B002B3FF432
:10A4A8007FAA09989847FFF77BBA984BDB78FFF7A4
:10A4B80077BA50F8047BBB423FF444AB0132FFF754
:10A4C80035BB511E924A52F8212093427FF43AAB91
:10A4D800FDF72AF98F4B43F821008F4B8F49012252
:10A4E8001A608F4B00221C602B46013213F8010BB7
:10A4F80001F8010B9442F8D1FFF724BB104603F191
:10A50800010950F804EB0290ABEB0E0ED645CC4691
:10A5180007D97F4800EB8303614506D101394FF025
:10A528000108029A4B46FFF737BB586843F8040BFB
:10A53800506842F8040B0CF1010CEDE7794B05F17A
:10A548000A02002C1A70D8BF102205F1FF30D8BFBC
:10A558005A706F4AD97152F820205A714FEA126026
:10A5680098704FEA1240D8704FEA12204FF001025B
:10A57800C8BF10349A714FF00002C8BF5C701871E0
:10A588001A725A729A72DA721A735A739A73DA735F
:10A59800FFF741BBFDF7C8F88F4205463FF446ABCD
:10A5A800FDF7A4F8604BD3F800348046002B3FF445
:10A5B8003DAB05287FF73AAB5C4AD2F80230177AF0
:10A5C8005B4A19BAD2F80090002B65D1FDF7ACF8B8
:10A5D800584B52481B6840F6B832EB1A93421DD9C3
:10A5E800554BD3F80815C3F800416422B1FBF2F3C8
:10A5F80002FB1313612B11D910214FEA19628270E3
:10A6080029FA01F20123C2704FEA1922037041703E
:10A61800027180F805908371FDF7C0F8B9F1000F59
:10A628003DD03F4B414AC3F800803C4B12F8011B18
:10A6380003F8011B0134A045F8D1374A37490023F4
:10A648001360374A14683D4AB4F5807F2046A8BF96
:10A658004FF4807004E011F8015B02F8015B0133EC
:10A668009842F8DCFDF72EF800283FF4E4AA344BB2
:10A678005B79DA077FF5DFAA12213248FEF7BCF8CA
:10A6880021462E48FEF7B8F802212F48FEF7B4F805
:10A69800FEF73AF8FFF7CFBA49457FF4C7AA1E4B31
:10A6A80001221A601E4B214AC3F800801B4B12F886
:10A6B800011B03F8011B0134A045F8D11D4B1D6097
:10A6C800224B19680029B8DD16480378BB42B4D07C
:10A6D8001F4B1B68002BB0D1FDF760F8ADE7002ACF
:10A6E8007FF409AB0027C8E50023C5F82031D5F869
:10A6F80020212268C5F80035C2F80433FEF7CBBF25
:10A708001C5500201855002088720200545A002059
:10A718000061002000600020186300205C5B0020BE
:10A728005C5C0020645C002000100040715E00202A
:10A73800B0540020745F002000D00040705D0020FD
:10A74800B05500201572020025720200645D0020D9
:10A7580004620020024A136801331360704700BF87
:10A768001C6300202DE9F04FCB4BCC4AD3F80013E3
:10A77800002385B01C4601201D4621FA03F6F60782
:10A788000BD552F8236046B100FA03F6344342F879
:10A798002350BFF36F8FBFF34F8F0133192BECD1C9
:10A7A800E50738D5BC4B0122C3F81425C3F810259A
:10A7B80000221546930003F1804303F51C33013250
:10A7C800082A5D609D62F5D1B34B5D629D64C3F854
:10A7D8005851D3F80024D3F800140A43C3F80024CE
:10A7E800D3F80023C3F80823AD4AC3F80423AD4BBC
:10A7F8004FF492720021184600F052FE4022028364
:10A8080002814FF48073012101A8ADF804308DF85E
:10A818000850FDF7D1FA14F4006FA24D08D09E4BF2
:10A82800D3F8A8369BB2A5F81631012385F81C3158
:10A83800A00204F4800734D5974ED6F8143513F4E3
:10A84800807308D01FB1D6F80034D90702D4082085
:10A85800FDF7B0FD0123D6F81025D20540F1578148
:10A8680095F81C318BB1002385F81C31B5F81631E9
:10A878009BB24FF4E06203930121882301A8ADF84D
:10A888000420ADF80830FDF797FA834B4FF4407277
:10A89800D3F820350293012101A8ADF80420FDF773
:10A8A8008BFA7FB37C4BD3F8006440F201723240DC
:10A8B800F705C3F8002409D50121C3F82C1501A810
:10A8C8004FF48063ADF80430FDF776FA70050FD5C4
:10A8D800714B0122C3F808259A65D3F8002312F4B6
:10A8E800001208BFC3F854214FF40012C3F8042320
:10A8F800B10507D54FF4A063012101A8ADF80430D4
:10A90800FDF75AFA220237D5634BD3F880E4D3F81F
:10A918008424D3F88814D3F88C74D3F89064D3F8CB
:10A9280094045FFA81FCD3F89814D3F89C341EF091
:10A938007F0F5FFA8EF8D2B2FFB2F6B2C0B2C9B2D8
:10A94800DBB201D1052A17D04FF4C06E8DF80D0087
:10A958008DF80E1001A80121ADF804E08DF80880EB
:10A968008DF809208DF80AC08DF80B708DF80C60F1
:10A978008DF80F30FDF720FA4B4B234033B1BFF36E
:10A988005B8F002385F82031BFF35B8F454FDFF8DD
:10A998000891DFF81CB1B84600264FF0140A06F1FA
:10A9A8000C0324FA03F3DB07F1B228D50AFB06935C
:10A9B800D8F80020D3F8083705EB461C12FA83F2C2
:10A9C800C8F80020BCF806E098B273449BB2082E81
:10A9D8004FEA4612ACF8063000F0A680B8F8083006
:10A9E800834240F0A180BCF80630B8F804009BB25E
:10A9F800984240F2998011B95846FDF7A3FD0136F7
:10AA0800092E08F12008CAD1284B2340002B00F05A
:10AA18009380214BD3F86C64C3F86C64BFF36F8FD9
:10AA2800BFF34F8F14F4806408D0D3F88044D3F870
:10AA380080341906C4F3C01440F196804FF0000822
:10AA4800DFF860A04FF000094FF4E06B26FA09F137
:10AA5800CA075FFA89F003D4B9F1000F2FD174B394
:10AA68000D4B142202FB0931DAF81030D1F8081620
:10AA780005EB491C53FA81F3CAF81030BCF816E00C
:10AA88001FFA8EFE5EFA81F189B2ACF81610BCF896
:10AA98001610BAF814E00DE0007002400071024090
:10AAA8000514C001AC560020FCFB1F000004000187
:10AAB8004C70024089B28E4559D9FDF76DFD09F1F8
:10AAC8000109B9F1080F0AF1200ABFD100244FF09B
:10AAD800010904F1100326FA03F3DB07E0B203D4FB
:10AAE8007CB9B8F1000F0CD005EB44126301D17AA0
:10AAF80000294ED0D288B98892B2914249D9FDF73F
:10AB080059FC0134082C07F12007E2D114E0002B8E
:10AB18007FF4BBAE95F82131002B7FF4B6AE4FF42D
:10AB28000013C6F80833B0E62A44D37A3BB91B4B66
:10AB38001B68D80700D500BE05B0BDE8F08FD388E4
:10AB4800A8F804300020D072D3888DF808109BB282
:10AB58004FF4E0628DF80900012101A8ADF8042046
:10AB68000393FDF729F94AE74FF0010868E7BCF8B5
:10AB78001610ADF804B089B260F07F00039100218F
:10AB88008DF808008DF8091001A80121FDF714F9C6
:10AB980095E72B4483F80A90B3E700BFF0ED00E097
:10ABA80010B5FCF7B1FF40B14FF080430022C3F865
:10ABB8000C21C3F81021C3F83825FCF7A5FF00289D
:10ABC80046D04FF08052614BD2F80414C3F82015D8
:10ABD800D2F80814C3F82415D2F80C14C3F82815B1
:10ABE800D2F81014C3F82C15D2F81414C3F8301581
:10ABF800D2F81814C3F83415D2F81C14C3F8401549
:10AC0800D2F82014C3F84415D2F82414C3F8481510
:10AC1800D2F82814C3F84C15D2F82C14C3F85015E0
:10AC2800D2F83014C3F85415D2F83414C3F86015A8
:10AC3800D2F83814C3F86415D2F83C14C3F8681570
:10AC4800D2F84014C3F86C15D2F84424C3F8702520
:10AC5800FCF764FF10B13E4B3E4A1A60FCF75EFFFA
:10AC680018B13D4BFB22C3F81825FCF757FF48B134
:10AC78003A493B4B0A681B6822F00F0203F00F03A6
:10AC880013430B60FCF74AFF18B1364B4FF40072C0
:10AC98001A60FCF739FF48B14FF08043D3F800241D
:10ACA800D20744BF6FF00102C3F800242E4AD2F83D
:10ACB800883043F47003C2F88830BFF34F8FBFF376
:10ACC8006F8F2A4B1B68082B0ED1294B1B68052B4D
:10ACD80002D8284AD35C3BB14FF01023D3F808229E
:10ACE8004FF08043C3F858254FF01023D3F80022C3
:10ACF800002A03DBD3F80432002B22DA1E49012391
:10AD0800C1F80435FCF7F8FE4FF010201224C0F803
:10AD18000042FCF7F1FEC0F80442FCF7EDFE002308
:10AD2800C1F80435FCF7E8FEBFF34F8F0E49134B0B
:10AD3800CA6802F4E0621343CB60BFF34F8F00BFD1
:10AD4800FDE70F4B0F4A1A6010BD00BF00C000405E
:10AD58008C5600404881030000F00040E40E00409B
:10AD6800580200104096024000ED00E0300100104B
:10AD7800340100107172020000E001400400FA057D
:10AD8800003400200090D0032DE9FF47AE4BD3F8E4
:10AD98000483D3F858610EB1C8F38056AB4B1F68D3
:10ADA8000FB1C8F30027AA4C6368002B00F0C480D9
:10ADB80041464FF49270FCF72BFC80B10023CDE99B
:10ADC80000330293A04A02238DF80030D2F8803471
:10ADD800C2F8803468460393D4E900139847414683
:10ADE8004FF4A270FCF714FC81464FF4A670FCF7F0
:10ADF8000FFC05464FF48870FCF70AFC82464FF4B6
:10AE08008470FCF705FC10B10620FCF7D7FBBAF1FB
:10AE1800000F39D02DB941464FF4A670FCF7F8FB66
:10AE280005468C4ADFF82082D2E90201D8F83CE5D1
:10AE3800E36CA36882E80300626A4FF0000A1846D0
:10AE4800C4E904AA0EEB0201FCF7CAFBE36CC4F8E0
:10AE580024A023F48033E364D8F8003223F02003DD
:10AE6800C8F80032E36C13F4802F43461CD1A26863
:10AE780072B9E36C980440F17E810123C8F804306C
:10AE8800E36C43F48023E36475B1A3683BB908E03D
:10AE9800E26C510440F1ED80002D00F0E58023695B
:10AEA80013B90320FCF78AFBB9F1000F44D0A0685E
:10AEB80020B10021FCF794FB0023A360E26C12F49C
:10AEC800801205D1E36C13F4004340F0E780E3619E
:10AED8005D4BE5690022C3F80821D3F80821D3F8AF
:10AEE800002222F02002C3F800225B4AC3F808239C
:10AEF800D3F8582132B1D3F8042312F4800208BFE2
:10AF0800C3F800250021554B554AA160216153E83B
:10AF1800000F00EA020C43E800CE9EF0000FF6D1C5
:10AF28001022684600F0BCFA04238DF80030019521
:10AF3800D4E9001368469847002F35D0E26C424B9D
:10AF480012F0100200F0D1800021E26CD4E90A75F9
:10AF5800C3F82011D3F82011D3F8501102F00802D9
:10AF68000A4304BF01229A603E4BD3E9020183E8F9
:10AF78000300E36C23F01003E364E36C002213F096
:10AF88000803C4E90C221EBF2F496264D1F84C554E
:10AF98008DF80020003B18BF01230393CDE901750C
:10AFA800D4E9001368469847002E39D0264A4FF452
:10AFB8008003C2F80833D2F858312BB1E36C13F48C
:10AFC800805308BFC2F80035E56A4DB3A06A00286F
:10AFD80040F097801C4BD3F858210AB3226BA26229
:10AFE8004FF0FF31206361641AB1C3F84425C3F8F8
:10AFF8004855154B0022C3F82021D3F82011C3F877
:10B008005821D3F85811C3F85021D3F850210822F9
:10B01800C3F800254FF48002C3F8042301229A6084
:10B028000E4B6FF0806253E8001F01EA020043E80C
:10B03800000494F0000FF6D14B0102D50720FCF76D
:10B04800BDFA04B0BDE8F087002000402021004090
:10B05800A45F0020AC5F002010020A00F05F00200F
:10B06800FF0F00FFCC5F0020D8F84C21002A7FF4A6
:10B078001BAF01221A60D3F8441100293FF404AF32
:10B088000021C3F84411D3F84401C3F84C11D3F894
:10B098004C115A600520FCF791FAF5E6384BC3F8D5
:10B0A8004C21D3F84C11A169C3F834150521C3F814
:10B0B8003815C3F81021D3F810210122DA62D3F829
:10B0C8001021002AFBD00022C3F81021D3F8102148
:10B0D800D3F84C210AB1D3F83C25294BE261002270
:10B0E800C3F84C21D3F84C31F2E6D3F820110029EB
:10B0F8003FF45AAFC3F82021D3F820210122DA60A7
:10B1080052E7E16CE36C5A0701F0080120D500F022
:10B118006042B2F1005218BF01220023266C33446A
:10B128009D42236400D0E9B1E26C22F00802E26497
:10B138000022891A18BF0121CDE901030391E262B7
:10B14800D4E9001322648DF800206846984767E721
:10B15800636C002BB8BF0A4B4FF00102B8BFD3F89D
:10B168004C35DBE7E36C0749054823F00403E36447
:10B17800FDF72AF854E7002D3FF496AE91E600BF9C
:10B1880000200040A45F002073B5294C402004F142
:10B198000C01FCF7DAF9002842D0206A421C0BD0D7
:10B1A800A37F9B073ED5019001A8FCF7CBFC019A31
:10B1B80001239340C0F80C35637F5BB31D4E4FF0FD
:10B1C800402301225A616425164300210220FCF71E
:10B1D800BCF918B94020B047013DF6D1002161778C
:10B1E800FCF79CFC4FF04023F8B14FF0FF32D3F846
:10B1F8000855D3F80C05C3F80015C3F80825C3F89B
:10B208000C250922C3F80025C3F80015C3F8085512
:10B21800C3F80C05002323720748D4E90031984786
:10B2280002B070BDFCF79EFCC6E7C3F80005F1E765
:10B23800805F0020D0720200885F002010B54FF0B8
:10B248008043D3F80443620706D54FF48470FCF7B3
:10B258005BF908B100239847A30606D54FF48A7016
:10B26800FCF752F908B100208047600607D54FF473
:10B278008C70FCF749F910B101200023984721068A
:10B2880008D54FF48E70FCF73FF918B10E4B00202B
:10B298001B689847E20508D54FF49070FCF734F91D
:10B2A80018B1094B01201B689847A3050AD54FF42C
:10B2B8009270FCF729F928B1034BBDE810401B68D0
:10B2C8000220184710BD00BFF45F00202DE9F04FA1
:10B2D800674B684FD3F80403B96FC0B287B040F02A
:10B2E8000040FCF7BFF8051E2CDA0023D7F88410BD
:10B2F80004A8CDE90433FCF759FCDFF884A10DF16B
:10B3080010084FF000091AF8013B07EBD30203F0CD
:10B31800070392F8842022FA03F3DA071BD408F112
:10B328000408B9F1000F13D000214FF00040FCF7DA
:10B3380099F8D7F8841004A8FCF738FC0028DCD169
:10B3480025F000450124002D7AD107B0BDE8F08F23
:10B358004FF00109D7E7484B4B440093D8F8002039
:10B36800002ADCD092FAA2F2009B44481C78B2FA78
:10B3780082F202F01F0343EA4414630904F01F0138
:10B38800C35C0394D0080B4402F00702DBB24FF011
:10B39800010C0CFA02FC0C3318F8002037F81330B3
:10B3A80022EA0C0208F8002003A8C3F382069908D1
:10B3B800FCF7C8FB039A02F5E0724B0750F822200D
:10B3C800B346C2F3014223D559462046D6B2FCF70C
:10B3D80073F803A80394FCF7B5FB039B03F5E0732C
:10B3E80050F82330C3F301439E4207D10021204681
:10B3F800FCF7FEFB31462046FCF7FAFB03A8039452
:10B40800FCF7A0FB039A01239340C0F82035A5E779
:10B41800022A0CBF0321022120460192FCF7E8FB17
:10B42800032E04D0019A022A06D1012EE6D15946EC
:10B438002046FCF741F8E1E7032ADFD1022EF5E7C1
:10B4480095FAA5F3B3FA83F304FA03F29B0003F128
:10B45800804303F5C04325EA0205D3F81005D3F865
:10B468001015C0F30520C1F30141FCF725F86AE780
:10B4780000600040243400205A7302005C7302000C
:10B488005A7302000A44914200F1FF3300D1704719
:10B4980010B511F8014B03F8014F9142F9D110BDD5
:10B4A80002440346934200D1704703F8011BF9E7B1
:10B4B8000CB430B5174B0C1E1D689DB008DA8B23F1
:10B4C8002B604FF0FF301DB0BDE8304002B0704730
:10B4D8004FF40273ADF8143014BF04F1FF33234660
:10B4E800049307934FF6FF7302900690ADF8163059
:10B4F800209A21AB02A92846019300F071F8431C59
:10B50800BCBF8B232B60002CDDD0029B00221A705D
:10B51800D9E700BFB4540020034613F8012B002AD2
:10B52800FBD1181A013870472DE9F0478E689E4202
:10B5380082460C4690461F4638D88A8912F4906F86
:10B5480032D025680969A5EB0109656905EB450550
:10B5580005EBD57501334B446D109D4238BF1D4630
:10B56800530531D5294600F089FB064650B90C230E
:10B57800CAF80030A38943F04003A3814FF0FF309D
:10B58800BDE8F08721694A46FFF77CFFA38923F4C9
:10B59800906343F08003A381266165614E44A5EB67
:10B5A80009052660A5603E46BE4200D93E463246A1
:10B5B8002068414600F0F8FAA36822689B1B3244D1
:10B5C800A36022600020DBE72A4600F0B1FB0646B4
:10B5D8000028E1D12169504600F000FBC7E70000D0
:10B5E8002DE9F04F98468B891B069DB007460D46FE
:10B5F80014460ED50B6963B9402100F03FFB286063
:10B60800286120B90C233B604FF0FF30D1E0402384
:10B618006B610023099320238DF82930CDF80C8025
:10B628003023DFF8A8818DF82A304FF0010923462E
:10B638009A4613F8012B0AB1252AF9D1BAEB040B63
:10B648000BD05B46224629463846FFF76DFF01308E
:10B6580000F0AA80099A5A4409929AF80030002BFF
:10B6680000F0A28000234FF0FF32CDE905230AF154
:10B67800010A049307938DF853301A935446052210
:10B6880014F8011B514800F03FFA049AD8B9D006C3
:10B6980044BF20238DF85330110744BF2B238DF866
:10B6A80053309AF800302A2B15D0079A54460020B8
:10B6B8004FF00A0C214611F8013B303B092B4ED9BB
:10B6C800B0B1079214E0A0EB080309FA03F313439F
:10B6D8000493A246D2E7039B191D1B680391002B14
:10B6E800BBBF5B4242F0020207930793B8BF0492C4
:10B6F80023782E2B0CD163782A2B35D1039B1A1D66
:10B708001B680392002BB8BF4FF0FF330234059338
:10B71800DFF8C8A021780322504600F0F5F940B1BF
:10B728004023A0EB0A0003FA00F0049B0343013412
:10B73800049314F8011B26488DF82810062200F0FF
:10B74800E3F9002838D0234B1BBB039B073323F0B6
:10B75800070308330393099B3344099367E70CFBFA
:10B7680002320C460120A5E700230134059319464F
:10B778004FF00A0C204610F8012B303A092A03D959
:10B78800002BC5D00591C3E70CFB0121044601231A
:10B79800F0E703AB00932A460F4B04A93846AFF3F2
:10B7A8000080421C0646D6D1AB895B063FF52CAF1C
:10B7B80009981DB0BDE8F08F03AB00932A46064BED
:10B7C80004A9384600F07AF8EBE700BF847302005A
:10B7D8008E7302000000000031B502008A73020077
:10B7E8002DE9F047164699468A680B69DDF82080EE
:10B7F8009342B8BF1346336091F8432007460C467E
:10B808000AB1013333602368990642BF33680233B3
:10B818003360256815F0060506D104F1190AE368B6
:10B8280032689B1AAB4226DC94F84320131E226828
:10B8380018BF012392062BD404F143024946384627
:10B84800C04701301ED02368E568326803F006035C
:10B85800042B08BFAD1AA36822690CBF25EAE57559
:10B8680000259342C4BF9B1AED1800261A34B5422E
:10B878001AD1002008E00123524649463846C047FD
:10B88800013003D14FF0FF30BDE8F0870135C6E73E
:10B89800E1185A1C302081F84300224494F84510DE
:10B8A80082F843100233C7E7012322464946384647
:10B8B800C0470130E6D00136D9E700002DE9FF473F
:10B8C8000C469146277E0C99782F80469A4604F1BB
:10B8D800430207D8622F0AD8002F00F0D880582FCB
:10B8E80000F0A38004F1420684F842703AE0A7F120
:10B8F8006303152BF6D801A050F823F05DB90200B8
:10B9080071B90200EDB80200EDB80200EDB802000E
:10B91800EDB8020071B90200EDB80200EDB80200FE
:10B92800EDB80200EDB802007DBA0200A1B902002C
:10B938005FBA0200EDB80200EDB802009FBA02003B
:10B94800EDB80200A1B90200EDB80200EDB802009E
:10B9580067BA02000B681A1D1B680A6004F14206E8
:10B9680084F842300123A3E0256808682E0600F118
:10B9780004030AD505680B60002D03DA2D236D42F8
:10B9880084F843305E480A2319E015F0400F056833
:10B998000B6018BF2DB2EFE70B682568181D08600B
:10B9A800280601D51D6802E06906FBD51D885448A4
:10B9B8006F2F0CBF08230A23002184F84310666800
:10B9C800A660002EA2BF216821F0040121600DB9F4
:10B9D800002E4DD01646B5FBF3F103FB1157C75D9A
:10B9E80006F8017D2F46BB420D46F4D9082B0BD132
:10B9F8002368DF0708D5236961689942DEBF3023D1
:10BA080006F8013C06F1FF36921B2261CDF800A032
:10BA18004B4603AA21464046FFF7E2FE01304CD1CF
:10BA28004FF0FF3004B0BDE8F087354884F8457022
:10BA380023680E681F0656F8045B0E6014D5D907F4
:10BA480044BF43F0200323601DB9236823F020037B
:10BA580023601023B0E7236843F020032360782392
:10BA6800284884F84530E3E75E0648BFADB2E6E70C
:10BA78001646BBE70B68266860691D1D0D60350614
:10BA88001B6801D5186002E07106FBD518800023F9
:10BA980023611646BAE70B681A1D0A601E686268B9
:10BAA8000021304600F030F808B1801B6060636800
:10BAB8002361002384F84330A8E7236932464946C6
:10BAC8004046D0470130ABD023689B0713D4E068C9
:10BAD800039B9842B8BF1846A4E70123324649465B
:10BAE8004046D04701309BD00135E36803995B1A83
:10BAF800AB42F2DCEBE7002504F11906F5E700BFDD
:10BB0800397202009573020001F0FF01102A2BDB45
:10BB180010F0070F08D010F8013B013A8B422DD0E6
:10BB280010F0070F42B3F6D1F0B441EA012141EA1F
:10BB3800014122F007047FF000070023F0E80256D5
:10BB4800083C85EA010586EA010685FA47F5A3FA65
:10BB580087F586FA47F6A5FA87F68EB9EED1F0BCD6
:10BB680001F0FF0102F0070232B110F8013B013A7F
:10BB780083EA010313B1F8D10020704701387047F8
:10BB8800002D06BF35460338073815F0010F07D1D9
:10BB9800013015F4807F02BF013015F4C03F013039
:10BBA800F0BC0138704700BF884210B501EB0204B1
:10BBB80002D98442234607D8431EA14208D011F86F
:10BBC800012B03F8012FF8E7024401468A4200D10D
:10BBD80010BD13F8014D02F8014DF7E737B50029FC
:10BBE80048D051F8043C0190002BA1F10404B8BFDF
:10BBF800E41800F0D3F8204A01981368154633B9C1
:10BC08006360146003B0BDE8304000F0CDB8A342D3
:10BC18000BD921686218934204BF1A685B68636095
:10BC280004BF521822602C60ECE71A465B680BB11F
:10BC3800A342FAD911685518A5420BD124682144AA
:10BC48005418A3421160DDD11C685B68536021441D
:10BC58001160D7E702D90C230360D3E7256861197F
:10BC68008B4204BF19685B68636004BF491921608F
:10BC78005460C7E703B030BD28640020F8B5CD1C78
:10BC880025F0030508350C2D38BF0C25002D064678
:10BC980001DBA94203D90C2333600020F8BD00F072
:10BCA8007DF821490A6814469CB9204F3B6823B99E
:10BCB8002146304600F062F838602946304600F0E8
:10BCC8005DF8431C23D10C233360304600F06CF838
:10BCD800E3E723685B1B17D40B2B03D923601C44B1
:10BCE800256004E06368A2420CBF0B6053603046D5
:10BCF80000F05AF804F10B00231D20F00700C21AC7
:10BD0800CCD01B1AA350C9E722466468CCE7C41CF0
:10BD180024F00304A042E3D0211A304600F02EF8A4
:10BD28000130DDD1CFE700BF286400202C6400205B
:10BD3800F8B5074614460E4621B9BDE8F840114645
:10BD4800FFF79CBF22B9FFF749FF25462846F8BDF3
:10BD580000F030F8A0420FD221463846FFF78EFF98
:10BD680005460028F2D031462246FFF78BFB3146C4
:10BD78003846FFF733FFE9E73546E7E738B5064DBC
:10BD88000023044608462B6000F01EF8431C02D12D
:10BD98002B6803B1236038BD34640020014800F0EB
:10BDA80011B800BF3C640020014800F00CB800BF87
:10BDB8003C64002051F8043C181F002BBCBF0B58F2
:10BDC800C018704770477047044A05491368002B2C
:10BDD80008BF0B46184410601846704730640020AE
:04BDE800446400208F
:10BDEC0034BE020000340020460800004CDF020084
:10BDFC0018550020000000004CDF020018550020F0
:10BE0C00000000004CDF020018550020000000006C
:10BE1C0018550020CB0300004464002000000000F3
:08BE2C00446400200000000046
:10BE34000090D0030020004000000000657A02005A
:10BE4400905A002010000C0000000000FF000000C9
:10BE5400C409000000000000000000000000000011
:10BE640000000000000000000000000000000000CE
:10BE740000000000000000000000000000000000BE
:10BE840000000000000000000000000000000000AE
:10BE9400000000000000000000000000000000009E
:10BEA400000000000000000000000000000000008E
:10BEB400000000000000000000000000000000007E
:10BEC4000000000000000000000000000800000066
:10BED400FF0000000000000003000000000000005C
:10BEE400EB3C904D53444F53352E3000020101007A
:10BEF4000110001000F80100010001000000000022
:10BF0400000000008000293412000054696E795545
:10BF14005342204D534346415431322020200000E7
:10BF2400000000000000000000000000000000000D
:10BF340000000000000000000000000000000000FD
:10BF440000000000000000000000000000000000ED
:10BF540000000000000000000000000000000000DD
:10BF640000000000000000000000000000000000CD
:10BF740000000000000000000000000000000000BD
:10BF840000000000000000000000000000000000AD
:10BF9400000000000000000000000000000000009D
:10BFA400000000000000000000000000000000008D
:10BFB400000000000000000000000000000000007D
:10BFC400000000000000000000000000000000006D
:10BFD400000000000000000000000000000000005D
:10BFE400000000000000000000000000000000004D
:10BFF400000000000000000000000000000000003D
:10C00400000000000000000000000000000000002C
:10C01400000000000000000000000000000000001C
:10C02400000000000000000000000000000000000C
:10C0340000000000000000000000000000000000FC
:10C0440000000000000000000000000000000000EC
:10C0540000000000000000000000000000000000DC
:10C0640000000000000000000000000000000000CC
:10C0740000000000000000000000000000000000BC
:10C0840000000000000000000000000000000000AC
:10C09400000000000000000000000000000000009C
:10C0A400000000000000000000000000000000008C
:10C0B400000000000000000000000000000000007C
:10C0C400000000000000000000000000000000006C
:10C0D400000000000000000000000000000055AA5D
:10C0E400F8FFFFFF0F000000000000000000000048
:10C0F400000000000000000000000000000000003C
:10C10400000000000000000000000000000000002B
:10C11400000000000000000000000000000000001B
:10C12400000000000000000000000000000000000B
:10C1340000000000000000000000000000000000FB
:10C1440000000000000000000000000000000000EB
:10C1540000000000000000000000000000000000DB
:10C1640000000000000000000000000000000000CB
:10C1740000000000000000000000000000000000BB
:10C1840000000000000000000000000000000000AB
:10C19400000000000000000000000000000000009B
:10C1A400000000000000000000000000000000008B
:10C1B400000000000000000000000000000000007B
:10C1C400000000000000000000000000000000006B
:10C1D400000000000000000000000000000000005B
:10C1E400000000000000000000000000000000004B
:10C1F400000000000000000000000000000000003B
:10C20400000000000000000000000000000000002A
:10C21400000000000000000000000000000000001A
:10C22400000000000000000000000000000000000A
:10C2340000000000000000000000000000000000FA
:10C2440000000000000000000000000000000000EA
:10C2540000000000000000000000000000000000DA
:10C2640000000000000000000000000000000000CA
:10C2740000000000000000000000000000000000BA
:10C2840000000000000000000000000000000000AA
:10C29400000000000000000000000000000000009A
:10C2A400000000000000000000000000000000008A
:10C2B400000000000000000000000000000000007A
:10C2C400000000000000000000000000000000006A
:10C2D400000000000000000000000000000000005A
:10C2E40054696E79555342204D53430800000000B1
:10C2F4000000000000004F6D6543000000000000D6
:10C30400524541444D4520205458542000C6526D96
:10C31400654365430000886D654302009100000099
:10C324000000000000000000000000000000000009
:10C3340000000000000000000000000000000000F9
:10C3440000000000000000000000000000000000E9
:10C3540000000000000000000000000000000000D9
:10C3640000000000000000000000000000000000C9
:10C3740000000000000000000000000000000000B9
:10C3840000000000000000000000000000000000A9
:10C394000000000000000000000000000000000099
:10C3A4000000000000000000000000000000000089
:10C3B4000000000000000000000000000000000079
:10C3C4000000000000000000000000000000000069
:10C3D4000000000000000000000000000000000059
:10C3E4000000000000000000000000000000000049
:10C3F4000000000000000000000000000000000039
:10C404000000000000000000000000000000000028
:10C414000000000000000000000000000000000018
:10C424000000000000000000000000000000000008
:10C4340000000000000000000000000000000000F8
:10C4440000000000000000000000000000000000E8
:10C4540000000000000000000000000000000000D8
:10C4640000000000000000000000000000000000C8
:10C4740000000000000000000000000000000000B8
:10C4840000000000000000000000000000000000A8
:10C494000000000000000000000000000000000098
:10C4A4000000000000000000000000000000000088
:10C4B4000000000000000000000000000000000078
:10C4C4000000000000000000000000000000000068
:10C4D4000000000000000000000000000000000058
:10C4E400546869732069732074696E79757362275F
:10C4F40073204D61737353746F7261676520436C6D
:10C504006173732064656D6F2E0D0A0D0A496620F0
:10C51400796F752066696E6420616E792062756733
:10C5240073206F722067657420616E792071756560
:10C534007374696F6E732C206665656C2066726512
:10C544006520746F2066696C6520616E0D0A6973DD
:10C55400737565206174206769746875622E636FF2
:10C564006D2F686174686163682F74696E7975737F
:10C574006200000000000000000000000000000055
:10C5840000000000000000000000000000000000A7
:10C594000000000000000000000000000000000097
:10C5A4000000000000000000000000000000000087
:10C5B4000000000000000000000000000000000077
:10DEE40044332211B8540020000000000000000058
:10DEF400000000000000000000000000000000001E
:10DF0400000000000000000000000000000000000D
:10DF140000000000000000000000000000000000FD
:10DF240000000000000000000000000000000000ED
:10DF340000000000000000000000000000000000DD
:08DF44000000000000000000D5
:04000003200073A9BD
:00000001FF
