:020000022000DC
:1060000000000420B5620200DD6202009178020007
:10601000E1620200E3620200E562020000000000AB
:10602000000000000000000000000000E762020025
:10603000E962020000000000EB620200ED62020073
:1060400035A10200EF62020045A10200EF620200EA
:10605000EF620200EF620200499B0200EF62020061
:10606000EF620200EF620200EF620200EF620200E4
:10607000EF620200EF620200EF620200EF620200D4
:10608000EF6202007D780200EF620200EF62020020
:10609000EF620200EF620200EF620200EF620200B4
:1060A000EF620200EF620200EF620200EF620200A4
:1060B000EF620200EF62020000000000000000003A
:1060C000EF620200EF620200EF620200EF62020084
:1060D000EF620200EF620200EF62020095BB020075
:1060E000EF620200EF620200EF62020000000000B7
:1060F00000000000EF62020000000000EF620200FA
:10610000000000000000000000000000000000008F
:10611000000000000000000000000000000000007F
:10612000000000000000000000000000000000006F
:10613000000000000000000000000000000000005F
:10614000000000000000000000000000000000004F
:10615000000000000000000000000000000000003F
:10616000000000000000000000000000000000002F
:10617000000000000000000000000000000000001F
:10618000000000000000000000000000000000000F
:1061900000000000000000000000000000000000FF
:1061A00000000000000000000000000000000000EF
:1061B00000000000000000000000000000000000DF
:1061C00000000000000000000000000000000000CF
:1061D00000000000000000000000000000000000BF
:1061E00000000000000000000000000000000000AF
:1061F000000000000000000000000000000000009F
:1062000010B5054C237833B9044B13B10448AFF3F0
:1062100000800123237010BD9801002000000000C1
:1062200008E7020008B5034B1BB103490348AFF36D
:10623000008008BD000000009C01002008E702006B
:10624000154B002B08BF134B9D46A3F5803A002148
:106250008B460F461348144A121A05F0AFFE0F4B37
:10626000002B00D098470E4B002B00D09847002001
:10627000002104000D000D48002802D00C48AFF3A7
:10628000008005F069FE2000290005F009FD05F0F9
:106290004FFE00BF000008000000042000000000C6
:1062A0000000000098010020F40A00200000000017
:1062B000000000000649074A074B9B1A03DD043B18
:1062C000C858D050FBDC05F009FDFFF7B9FF00000E
:1062D000A0E802000000002098010020FEE7FEE791
:1062E000FEE7FEE7FEE7FEE7FEE7FEE7FEE7FEE786
:1062F000F0B595B000241D460E460846174603F03B
:1063000077F9304623460822099505A91A9D089772
:106310000D950A948DF82C400C9403F0CDF99DF85E
:1063200014308DF81140DDE9061003F00302012A54
:10633000CDE9020128D0022A04D0304603F05CF9EE
:1063400015B0F0BDBDF81650C3F3C2038DF8103080
:10635000C5F389150827082D2C4628BF08243B467D
:1063600022460EA9304603F0A7F92D1B214608ABA3
:1063700002AA0EA8274401F097F9002DEBD1304670
:1063800003F03AF915B0F0BDBDF81470059DC7F3E0
:106390008312C3F3C2040EA93046920008238DF87D
:1063A0001040C7F3831703F087F9C5F3952508ABB1
:1063B0003A4628460EA9009302AB01F0FDF830469C
:1063C00003F01AF915B0F0BD704700BF00B583B0F7
:1063D000044B0093044A4023FFF78AFF03B05DF8A3
:1063E00004FB00BFED630200B801002038B50E4881
:1063F0000E4D03780E4CEB5C00252570D2B253B1E4
:10640000043004F017FC58B90A4B1B7813B12378F9
:10641000002BFCD038BD0C3004F024F90028F3D058
:1064200001F0C0F9F0E700BF00000020E00A002002
:10643000F8010020B40100202DE9704319481A4AE0
:106440000378D35C88B02BB3043004F03BFB174DCA
:106450000FCD6C460FC495E80F004FF0EB7684E843
:106460000F004FF006084FF0FF394FF0FF344FF0A8
:10647000FF350C48069600226946CDE90089CDE932
:10648000024503F0D9FA48B9094B00221A7008B046
:10649000BDE870830C3004F05FF8D8E701F082F9B2
:1064A000F2E700BF00000020E00A002050CC02000C
:1064B000B4010020064B8B6004284FF00003CB6032
:1064C0004B609CBF034B53F820300B60704700BFFC
:1064D0000CD1020030D10200C368DB6800225A717F
:1064E000704700BFC368DB6801225A71704700BF64
:1064F00030B40E4B0E4D0F4CED1A00222D09C1E9A0
:106500000242C1E900220BD003EB0515DC682479B7
:10651000FF2C02D0904205D001321033AB42F5D1AE
:1065200030BC70479B680B6030BC7047E4E70200EA
:1065300004E8020044D102000129034604D0816826
:10654000D1F84811890704D500221846114602F0F7
:10655000E3BA00B583B0536801930549136800910D
:10656000044A022101F0FAFE03B05DF804FB00BF0B
:106570009CCC020090CC02008368D3F848319B0782
:1065800033D42DE9F0471B4C1B4E361B360982B025
:1065900028D0DFF86CA0DFF86C90DFF86C8007463D
:1065A00004EB06160DE05D79A368CDF804C0002D5C
:1065B00014BF55464D460095103401F0CFFEA6425B
:1065C00010D0E36893F804C0BCF1FF0F42464FF0CF
:1065D00008013846E7D1A368084A103401F0BEFE2E
:1065E000A642EED102B0BDE8F0870022114602F0CB
:1065F00093BA00BFE4E7020004E80200C8CC02003E
:10660000B4CC0200BCCC0200E8CC02008368D3F812
:1066100048319B0703D4044A022101F09FBE0022A7
:10662000114602F079BA00BF0CCD02008368D3F89E
:1066300048319B0703D4044A022101F08FBE002297
:10664000114602F069BA00BF0CCD02002DE9F041FD
:106650000F49104D52F8047C491B090906460FD01A
:1066600005EB011402E01035A54209D0A9683846AF
:1066700005F0DAFC0028F6D1EB685871BDE8F0812E
:106680003B463046044ABDE8F041022101F066BEB7
:1066900004E80200E4E7020020CD02002DE9F04109
:1066A0001049114D52F8047C491B0909064610D0C7
:1066B00005EB011402E01035A5420AD0A96838465E
:1066C00005F0B2FC0028F6D1EB6801225A71BDE852
:1066D000F0813B463046054ABDE8F041022101F019
:1066E0003DBE00BF04E80200E4E7020020CD020046
:1066F00070B40E4A0E4C0F4D121B0023D208C1E994
:1067000002534B600AD00C4E02E001339A4208D08B
:1067100036F82350A842F8D154F833200A6070BCF0
:106720007047002270BC0A60704700BFE4E70200B7
:106730000CE702000CD10200A00000202DE9F04F70
:10674000CB683F4DDFF824815B79A5EB080585B068
:106750008B46ED080746002B6DD03A4A3A4B08218C
:10676000384601F0FBFD394A0821384601F0F6FDB4
:1067700085B3374EDFF8F8A04FEA850900240023DF
:10678000F25AA2423CD004339945F9D1D6460023AF
:1067900036F82320A24243D001339D42F8D1002293
:1067A00011465046002336F823C0A44515D00133C6
:1067B0009D42F8D191424FF0000312D9254A02922E
:1067C000CDE900E0244A01340821384601F0C6FD35
:1067D000A542D4D105B0BDE8F08F914258F83330CE
:1067E000ECD81E4A0292CDE900E01B4A0134082190
:1067F000384601F0B3FDAC42C1D105B0BDE8F08F21
:10680000DBF80C2016491279595802EB4202072393
:1068100093400B40D340DBB2124A52F823E0B6E774
:1068200008EBC30399790F4B03290A4628BF0322BB
:1068300053F82200B6E70C4A022101F08FFD8CE7E5
:10684000E4E7020060CD020054CD020080CD0200DA
:10685000A0000020D8CD0200C0CD020008CD02006B
:106860000C0100201CD1020040CD02000CE7020008
:1068700038CD020013460A46C168FFF75FBF00BF6C
:106880002DE9F047124D134C52F8049C641B240967
:10689000074615D01646884605EB041402E010356D
:1068A000A5420DD0A968484605F0BEFB0028F6D1E8
:1068B0003346424629463846BDE8F047FFF73EBF1B
:1068C0004B463846044ABDE8F047022101F046BD78
:1068D000E4E7020004E8020020CD020002B970479C
:1068E0002DE9F04F1D46CB687E4993F804B085B082
:1068F000064617462868072205F0A8FB00286DD138
:10690000012F00F0E380DFF80482044658F8041BEE
:1069100068680A2205F09AFB58B10134052CF5D1BC
:106920006B68714A3046022105B0BDE8F04F01F0B6
:1069300015BDE3B2022F019340F0C5806B4D6C4B47
:10694000A3EB05095FEAD90945D00BEB4B0B0723F5
:1069500004FA0BF403FA0BFBCDF808B0654FDFF82F
:10696000A081DFF8ACA1DDF804B005EBC90909E0AE
:106970002B68083501F0F2FCA94507F1040708F17E
:10698000040828D0AB795B4552464FF002013046EF
:10699000EED33A68029982EA04030B405340C3F3F2
:1069A000C202C3F382118A4238BF0A4603F00701CC
:1069B0008A4238BF0A46C3F342218A4205F10805DC
:1069C00038BF0A46A9453B60A8F8022007F1040732
:1069D00008F10408D6D105B0BDE8F08F4649286813
:1069E000082205F033FB0446002877D1012F0190DF
:1069F000A4D04FF0010ABA45EDD22B1FDFF8EC808E
:106A00003B49DFF80C910BEB4B0B0AF1804A03EB8F
:106A10008707072304FA0BF20AF1FF3AA1EB0801FA
:106A200003FA0BF305EB8A0A03920293CC085AF897
:106A3000045F0CB34FF0000B03E00BF1010B5C455E
:106A400018D0202258F83B00294605F0FFFA08EB41
:106A5000CB020028F1D19179019B994213D213689E
:106A600002214A46304601F079FC5745DFD105B096
:106A7000BDE8F08FDAF80050204A2B46022130465C
:106A800001F06CFCF1E71B4B039A53F82B10029DAD
:106A90001B484A402A404A40C2F3C201C2F3821C4A
:106AA000614538BF614602F0070C614538BF614659
:106AB000C2F3422C00EB8B00614538BF614643F8BE
:106AC0002B204180D1E74FF0020A94E70D4A30466F
:106AD000022105B0BDE8F04F01F040BC2B680A4A26
:106AE00020E700BFDCCD020054CE02000CE702001C
:106AF000E4E702000C010020FCCD020040CE0200C1
:106B0000A0000020E4CD020004CE02001CD102004F
:106B10001CCE020013460A46C168FFF7DFBE00BF65
:106B20002DE9F047124D134C52F8049C641B2409C4
:106B3000074615D01646884605EB041402E01035CA
:106B4000A5420DD0A968484605F06EFA0028F6D196
:106B50003346424629463846BDE8F047FFF7BEBEF9
:106B60004B463846044ABDE8F047022101F0F6BB27
:106B7000E4E7020004E8020020CD020099B10E4BC8
:106B80000E495B1ADB0815D030B400220C4D02E030
:106B9000013293420BD035F822408442F8D151F8AB
:106BA000320030BC7047054951F830007047002072
:106BB00030BC704718467047E4E702000CE702005B
:106BC000A0000020094B013903EBC00003290BD8BA
:106BD000DFE801F004020806042070470220704735
:106BE0004079704700797047002070470CE7020039
:106BF000704700BF2DE9F047974CD4E901239A4232
:106C000084B064D00023C4F81834BFF34F8FA56854
:106C1000EAB2D31C04EB830114F82330580718D5CB
:106C200066680B7803F00303012B46D0022B03D1D7
:106C30004B88023505EB9315EAB2D4F81804D31C3F
:106C400004EB830128B9AE423DD914F823305B0729
:106C5000E7D404EB82026B1CD2680192DBB204EB36
:106C6000830302F00302DB680293022A05F10207A4
:106C700031D0012A00F0A580D4F810543DB12B6822
:106C800028469B689847EB681D68002DF7D1734B29
:106C90005B88012B09D97248724B7349C01AC0082E
:106CA000000440F0020000F0E7F8D4E90130C01A17
:106CB00018BF012004B0BDE8F0870B880235C3F38C
:106CC00083131D44B8E7A66004B0BDE8F087002038
:106CD00004B0BDE8F087BDF8063064489DF8046054
:106CE000C3F389194D46502D28BF502565F38F13E6
:106CF00005F10801ADF8063002F030FCC6F3C2061B
:106D000080460028B8D002F073FC002301A90822B5
:106D1000404602F09DFCFB43DBB20133B5EB830F31
:106D20004FEA830AF9B240F28980A5EB0A050331E4
:106D300004EB8101082352464046EDB202F088FC84
:106D40004B492A460AF10803404602F081FC09F14A
:106D5000030907EB9907D4F81834002B77D1D4F83E
:106D6000105405B3DFF80CA14FF00709EB685A790E
:106D7000B2B11A79BDF8080002EB42015AF82000BE
:106D800009FA01F2052E02EA000208BF0326CA40F2
:106D9000964205D82B6841461B6828469847EB6801
:106DA0001D68002DE2D1404602F026FC002000F0D4
:106DB00053FDD4F8183403B9A760002000F054FD47
:106DC00073E7BDF804602948C6F38313062B28BF78
:106DD0000623991C63F389168900ADF8046002F05C
:106DE000BDFBC6F3C206804600283FF445AF02F063
:106DF000FFFB0023082201A9404602F029FCBDF850
:106E0000043013F4707FA6D06FF00109A9EB0509D7
:106E10000825F9B203312B46042204EB81014046D8
:106E200002F016FCBDF80430013709EB0702C3F38A
:106E30008313934205F10405EBD88CE703312A460E
:106E400004EB81010823404602F002FC7FE7404644
:106E500002F0D2FB29E700BFCC020020B8000020DE
:106E60003CE702000CE7020074CE020060E802007A
:106E7000D80200200C0100202DE9F04F5D4C87B0B6
:106E8000064600200F4600F0E7FCD4E9015303F565
:106E900080735B1B012B7DD804F21C4804F5836AC8
:106EA00004F214491AE0BDF80E30C3F3891303331A
:106EB000090C0BEB930B4846019100F013FE01996E
:106EC000002839D04046C4F808B000F0DFFDD4E90E
:106ED000013202F58072D21A012A5CD801214046A3
:106EE00000F0D4FD504600F0EDFD484600F0EAFD0C
:106EF000A368DAB2D11C04EB810014F8211001F070
:106F0000040C490728D404EB8202591CD26803926E
:106F1000C9B204EB810102F00302012AC96803F13E
:106F2000020B30D0022ABED000214846019100F069
:106F3000D9FD01990028C5D14046C6E743880EEB2C
:106F40009313DAB2D11C04EB810014F8211001F084
:106F5000040CBCF1000FD6D0017801F00301012927
:106F60000BD0022903F1020E02F10301E6D004EB7B
:106F70008100BCF1000FEFD1C5E702880233C2F3F4
:106F800083121344DDE7BDF80C30C3F38313090CFF
:106F90009B4490E72B46DAB20332023305210020EE
:106FA00044F82210636000F05FFC0021124800F0FA
:106FB0005FFD80F31000F1006B1C01F03801DBB2C3
:106FC000EDB204EB830341F001010004033540EA14
:106FD000164641EA8727DE6044F8257023781BB106
:106FE000FFF708FE0028FBD1FFF702FE07B0BDE85F
:106FF000F08F00BFCC020020E80600202DE9F04F02
:10700000614C87B0064600200F46904600F024FCF5
:10701000D4E9015303F580735B1B022B7FD804F284
:107020001C4904F5836B04F2144A1BE0BDF80E20E2
:10703000C2F389120332090C03EB92035046CDE9E7
:10704000003100F04FFD019900283AD0009BA36069
:10705000484600F01BFDD4E9013202F58072D21AD5
:10706000022A5DD80121484600F010FD584600F084
:1070700029FD504600F026FDA368DAB2D11C04EBCE
:10708000810014F8211001F0040C490729D404EB05
:107090008202591CD2680392C9B204EB810102F04A
:1070A0000302012AC96803F1020331D0022ABDD0CC
:1070B00000215046CDE9003100F014FD019900286F
:1070C000C4D14846C5E743880EEB9313DAB2D11C0E
:1070D00004EB810014F8211001F0040CBCF1000F46
:1070E000D5D0017801F0030101290BD0022903F169
:1070F000020E02F10301E6D004EB8100BCF1000FA7
:10710000EFD1C4E702880233C2F383121344DDE7F0
:10711000BDF80C20C2F38312090C13448EE72B46F2
:10712000DAB2033203334521002044F822106360B1
:1071300000F09AFBAB1CDBB204EB83030021134885
:10714000C3F80C8000F094FC80F31000F1006B1C7D
:1071500001F03801DBB2EDB204EB830341F04101F1
:107160000004033540EA164641EA8727DE6044F80A
:10717000257023781BB1FFF73DFD0028FBD1FFF7F9
:1071800037FD07B0BDE8F08FCC020020E8060020F4
:107190002DE9F04F694C89B0064600201F4688460D
:1071A000039200F059FBD4E9015303F580735B1B94
:1071B000042B00F2828004F21C4904F5836B04F274
:1071C000144A1BE0BDF81620C2F389120332090CE1
:1071D00003EB92035046CDE9013100F083FC0299A4
:1071E00000283BD0019BA360484600F04FFCD4E947
:1071F000013202F58072D21A042A5FD80121484672
:1072000000F044FC584600F05DFC504600F05AFC8B
:10721000A368DAB2D11C04EB810014F821C01CF081
:10722000040F0CF0040128D104EB8202591CD2682F
:107230000592C9B204EB810102F00302012AC96878
:1072400003F1020332D0022ABCD000215046CDE91E
:10725000013100F047FC02990028C3D14846C4E739
:1072600043880EEB9313DAB2D11C04EB810014F8BF
:10727000211001F004010029D6D090F800C00CF0D4
:10728000030CBCF1010F0BD0BCF1020F03F1020E95
:1072900002F1030CE4D004EB8C000029EDD1C3E72C
:1072A00002880233C2F383121344DCE7BDF81420D2
:1072B000C2F38312090C13448CE72B46DAB2033273
:1072C0000533C521002044F82210636000F0CCFA99
:1072D000A81CEA1C2B1DC0B2DBB204EB8000D2B2AA
:1072E00004EB830C04EB8202039BC3600021129B1E
:1072F0001348D760CCF80C3000F0BAFB80F31000D4
:10730000F1006B1C01F03801DBB2EDB204EB83033A
:1073100041F0C1010004033540EA164641EA8821E4
:10732000DE6044F8251023781BB1FFF763FC0028CA
:10733000FBD1FFF75DFC09B0BDE8F08FCC02002067
:10734000E80600202DE9F04F6F4C89B0064600207A
:107350001F468846039200F07FFAD4E9015303F5F3
:1073600080735B1B052B00F2828004F21C4904F53C
:10737000836B04F2144A1BE0BDF81620C2F3891295
:107380000332090C03EB92035046CDE9011300F0E0
:10739000A9FB019900283BD0029BA360484600F05E
:1073A00075FBD4E9013202F58072D21A052A5FD842
:1073B0000121484600F06AFB584600F083FB504626
:1073C00000F080FBA368DAB2D11C04EB810014F852
:1073D00021C01CF0040F0CF0040128D104EB820240
:1073E000591CD2680592C9B204EB810102F0030274
:1073F000012AC96803F1020332D0022ABCD000215D
:107400005046CDE9011300F06DFB01990028C3D16E
:107410004846C4E743880EEB9313DAB2D11C04EB61
:10742000810014F8211001F004010029D6D090F851
:1074300000C00CF0030CBCF1010F0BD0BCF1020F2B
:1074400003F1020E02F1030CE4D004EB8C000029DE
:10745000EDD1C3E702880233C2F383121344DCE7A1
:10746000BDF81420C2F38312090C13448CE72B4699
:10747000DAB20332063340F20511002044F822103C
:10748000636000F0F1F9A91C05F1030C2A1DC9B2D3
:107490005FFA8CFC6B1D04EB810104EB8C0CD2B207
:1074A0000398C86004EB8202DBB2CCF80C7004EBEA
:1074B0008303129FD7600021139A1448DA6000F00A
:1074C000D7FA80F31000F1006B1C01F0380141F491
:1074D0008071DBB2EDB204EB830341F001010004E3
:1074E000033540EA164641EA8821DE6044F825105B
:1074F00023781BB1FFF77EFB0028FBD1FFF778FB59
:1075000009B0BDE8F08F00BFCC020020E8060020E3
:1075100038B5084BD3F8104401251D704CB1E36811
:107520005D71236820465B689847E3681C68002CFF
:10753000F5D138BDCC02002030B5C38885B00446F3
:107540000D461BBB217A05291ED0627A82B9134AE7
:10755000A08852F8212003920021FFF70FFB039A25
:107560000F490346284605B0BDE8304001F05ABC3B
:10757000A088FFF727FB0B4B0B4953F82020284628
:1075800001F050FC217AE2E705B030BD074A0092D5
:107590000749084A284601F045FCD3E734D30200E6
:1075A000B8D2020010D30200B4D20200ACD2020062
:1075B00094D202008CD202002DE9F04385B04FF046
:1075C000000C0C9C814694F80C8084F80CC00E468C
:1075D0001746184621461D46FFF7AEFF062F09D86D
:1075E000DFE807F0042E343B444F1F004946204695
:1075F00001F018FC2B7A052B05D06B7A5BB9274973
:10760000204601F00FFC204601F000FC84F80C80BD
:1076100005B0BDE8F083224A2249204601F002FC71
:10762000EDE7D6E90413F2680393B3680291CDE95C
:1076300000324946D6E90023204601F0F3FBD9E7A2
:1076400032684946204601F0EDFBD3E7D6E9002336
:107650004946204601F0E6FBCCE7B3680093D6E943
:1076600000234946204601F0DDFBC3E7D6E902329C
:1076700001920093D6E900234946204601F0D2FB4F
:10768000B8E7D6E90321B3680291CDE90032494653
:10769000D6E90023204601F0C5FBABE7E4CC0200AD
:1076A000ACD20200B4D20200082900D970472DE9FB
:1076B000F04F9B4683B000241B7B8BF80C400D469B
:1076C00006465946104690460193DFF8D0902C4F5D
:1076D000FFF732FF05E0325D013401F0A3FB082C17
:1076E00009D0A54239465846F5D84946013401F03B
:1076F00099FB082CF5D12349DFF8A490224C234FA5
:10770000584601F08FFB4FF0000A0DE0D15D11F0FB
:10771000970F08BF2E22214658460AF1010A01F0B0
:1077200081FBBAF1080F10D0554505D916F80A208B
:107730007E2AEBD92E22EEE7494658460AF1010A85
:1077400001F070FBBAF1080FEED198F80830052B64
:1077500002D098F8093063B90D49584601F062FB30
:10776000584601F053FB019B8BF80C3003B0BDE889
:10777000F08F084A0849584601F054FBECE700BF77
:10778000C4D20200D0D20200D4D2020077E50200B7
:10779000E4CC0200ACD20200B4D20200CCD202008F
:1077A000C0D2020000B585B00346002101AA44F210
:1077B0000100CDE90111039300F004F805B05DF874
:1077C00004FB00BF70B572B6FFF7A2FEFFF712FA16
:1077D0000028FBD1184D6B88F3B9184B1B68DB07E9
:1077E0000DD5174C174E00BE6B88012B07D9A01B77
:1077F000C0080004144940F00200FFF73DFBBFF34E
:107800004F8F1249124BCA6802F4E0621343CB60F7
:10781000BFF34F8F00BFFDE7094C0A4E0D49A01B77
:10782000C008000440F00100FFF726FB034B1B6873
:10783000DA07D9D5D7E700BFB8000020F0ED00E0A7
:107840003CE702000CE7020088D3020000ED00E0F4
:107850000400FA057CD3020072B6024A13680133B1
:1078600013607047EC060020034A1368013B136065
:1078700003B962B6704700BFEC060020024A034B12
:1078800010681B68184700BFF0060020F8060020AB
:107890001EF0040F1CBFEFF309800AE0EFF308802D
:1078A0000549064A884201D8904202D88D464FF0D9
:1078B0000000034B184700000000042000E00320F4
:1078C000E9780200BFF34F8F0549064BCA6802F4FE
:1078D000E0621343CB60BFF34F8F00BFFDE700BFF3
:1078E00000ED00E00400FA052DE9F04F83B0814679
:1078F000FFF70EFEFFF77EF90028FBD14F4BDFF8B4
:1079000068819D6AB8F80230B9F1000F00F08380F9
:107910004B4C4C4E002B48D1484BA4EB060A4FEA87
:10792000DA0A4FEA0A4ADB6A4AF0010A464FDFF8F0
:107930003CB10024012602E001341A2C12D006FAD0
:1079400004F32B42F8D057F82420002AF4D0B8F8DA
:107950000230002BF0D0594650460134FFF74EFB61
:107960001A2CECD12A060ED5B8F802302BB94846AD
:10797000FFF7A8FF03B0BDE8F08F304B33495A6BD7
:107980005046FFF73BFB2B04F1D5B8F80230002B33
:10799000EDD02A4B2E499A6B5046FFF72FFB4846F5
:1079A000FFF790FF03B0BDE8F08FA4EB060A4FEAA3
:1079B000DA0A4FEA0A4A4AF0010AD9F8182025499A
:1079C0005046FFF71BFBB8F80230002BA4D0D9E9D2
:1079D0000232CDE900322049D9E900235046FFF7B1
:1079E000B1FCB8F80230002B96D0D9F81C300093C7
:1079F000D9E9042319495046FFF7CAFB0F4BDB6A4C
:107A0000990793D5B8F80230002B8FD0144950460F
:107A1000FFF732FA8AE713B9094C0A4E7CE7084BA4
:107A2000084A1049A3EB020A4FEADA0A4FEA0A4A67
:107A30004AF0010A5046FFF71FFADFE700ED00E0C9
:107A4000C4E702000CE702000CDA0200F0D40200E6
:107A500010D50200F4D302000CD4020044D402007A
:107A6000A0D402006CD40200FC000020E4D4020088
:107A700010B4034653E8000F0A4643E8002494F08C
:107A8000000FF7D15DF8044B704700BF10B40346F8
:107A900053E8002F02EB010043E8000494F0000FCC
:107AA000F6D15DF8044B704710B4034653E8002F3D
:107AB000A2EB010043E8000494F0000FF6D15DF85A
:107AC000044B704710B40346012253E8001F41EAFB
:107AD000020043E8000494F0000FF6D15DF8044B77
:107AE000704700BF10B40346002253E8000F00EABD
:107AF000020143E8001494F0000FF6D15DF8044B46
:107B0000704700BF2DE9F0478368D3F84831C3F3CD
:107B100040059B0788B045D401293CD8254C264B0D
:107B2000264A1B1B9F081B2BA2FB072730D9DFF817
:107B300094A00646A9464FF064082268D4F808C00D
:107B40001379106862680693ACEB000003EB8303C3
:107B5000ACEB0202218B0792C0B203EB83030390CC
:107B60000492009101359B00CDF80490B3FBF2F331
:107B700008FB00F00593B0FBF2F0636902905246F7
:107B80000821304600F0EAFBAF4204F11C04D4D8CF
:107B900008B0BDE8F0870A4A022108B0BDE8F04706
:107BA00000F0DCBB0022114608B0BDE8F04700F051
:107BB000B3BF00BF60E8020098E8020025499224A4
:107BC00074DA020088DA020038B504460020FFF7B4
:107BD00043FED4E900311A688A4215D9511E196052
:107BE0002168A3680868258B12F8012CE4681B1A29
:107BF0000879DBB2984205FB024400D20B710020E9
:107C0000FFF732FE204638BD00240020FFF72CFE8F
:107C1000204638BD38B5054600200C46FFF71CFE4F
:107C20002A681368591C1160E9682A8B641AB4FB2E
:107C3000F2F41C70BDE838400020FFF715BE00BF0D
:107C400010B543689C686068036801219B68984789
:107C5000A36810B903221A7010BD04221A7010BD57
:107C60002DE9F041054680684C4E82B00024802208
:107C70002146A0308DF8034004F0A0F92869484956
:107C800001F0D0F8286901F0C1F846F001064FF480
:107C90007A78686803680DF103011F69012201AB5E
:107CA000B847019B611CC3B19DF80320AB681B2A38
:107CB00005D093F8A0001B28EBD1522A1CD02344F6
:107CC000CCB2092C83F8A020E3D9AB68002283F85A
:107CD000A020042002B0BDE8F0814FF6C010B047EC
:107CE000019B002BD5D108F1FF371FFA87F8B8F1B7
:107CF000000FCED10D20EDE71C44002084F8A00039
:107D0000AF6897F8A1305B2B42D107F1A10602239F
:107D100002E0802B90B237D016F8014F00EB8002C2
:107D2000A4F130013B2C01EB4202D9B203F1010373
:107D3000EFD101310A065FFA81FC25D40CF1A002D3
:107D40003A44ACEB020C002102E099B233061BD49A
:107D500012F8014B01EB810304EB4303303B0CEBC6
:107D60000206002CF1D1FA2928BFFA213975AB6837
:107D7000FA288ABFFA2298759A75AB68002083F8B2
:107D8000A00002B0BDE8F0810C2002B0BDE8F08197
:107D900087F8A0000B2002B0BDE8F08160E002008F
:107DA00050E002002DE9F04F804D0B78EB5C8BB07A
:107DB00013F0080302910746069200F0F4800B4688
:107DC000C1F10101C81813F8012FAA5C1607F9D4F4
:107DD0008346069AD3B205931346029A9B1A0793D9
:107DE000D946B846029C204604F028F9D8F8083055
:107DF00093F819C0069BA0EB0900ACEB030B5845A8
:107E000073D9079ACDF8049009F1FF33C4F1010644
:107E10002344A6EB090AA2EB090E0AEB030406EBC6
:107E200003095A78A95C013309070EEB030002D558
:107E30000A2A55D0A3468445EFD8DDF80490029A6B
:107E400009EB0B030493D3185C460393D8F8100096
:107E500000F0DCFF2CB34FF0000B09ABCA46D8F89A
:107E60000400029902680193D76851442246B8473A
:107E70000999019B29B1641A8B4412D009EB0B0AB2
:107E8000EDE7D8F8082011780329E8D0D2F8481196
:107E90008906FBD5B2F848116FF34511A2F84811D5
:107EA000DDE7039B1B78EB5C18076AD5049B029AFD
:107EB00013441C4606EB040914F8013FEB5C1B0756
:107EC000F8D43B49D8F8100000F0ACFF059B002B1C
:107ED00088D03849D8F810001A4600F0A3FF81E78F
:107EE000CDE90339DDF80490B0E74946CB46474673
:107EF000002839D0029A09F1FF3313444FF00009EA
:107F000003E009F1010948452ED013F8012F0A2A90
:107F100001EB0904F5D1386900F078FFB9F1000FE1
:107F200015D04FF000080DF1240A5E4678680299DA
:107F300002683144D56853464A46A847099919B39F
:107F4000B9EB0109884402D00BEB0806EEE7631C8D
:107F5000174938699B4600F065FF059B23B1154919
:107F600038691A4600F05EFF029B38695B44194687
:107F700000F058FF38690E4900F054FF0BB0BDE81F
:107F8000F08FDDF810909CE7B8680378032BCDD014
:107F9000D0F848319D06FBD5B0F848316FF3451352
:107FA000A0F84831C2E79B4613E700BF77E502001F
:107FB00014DB02009CDB02000CB470B584B008AB8B
:107FC000816853F8045B0193D1F848315B0704469C
:107FD00001D5CB7E4BB92069294601AA00F0D8FF14
:107FE00004B0BDE8704002B070471B310222684601
:107FF00003F0D6FFA368294A29490026DE762069C6
:1080000000F010FF01AA2069294600F0C1FF9DF889
:108010000030A268002B35D0D17E994211D0214981
:10802000029103F12F006D2133258DF80D00ADF87D
:108030000E108DF80C50D3762069194902AA00F071
:10804000F1FE9DF80130002BCAD0A268117F994241
:10805000C6D045F61B3103F12F00ADF808103425CA
:108060006D218DF80B00ADF80C108DF80A501377C8
:1080700020690B4902AA00F0D5FE04B0BDE87040AB
:1080800002B07047D3762069044A054900F0CAFE61
:108090009DF80130002BA3D0D7E700BF4CE00200D1
:1080A000B4D202001B5B313B0CB430B585B008ABD9
:1080B000816853F8045B0193D1F848315B070446AB
:1080C00002D5CB7E082B09D12069294601AA00F0F0
:1080D0005FFF05B0BDE8304002B0704702221B319F
:1080E000684603F05DFFA368DA7E082A0AD02B4AAF
:1080F0002B49029208220391DA76206929496A44C1
:1081000000F090FE01AA2069294600F041FF9DF889
:108110000030A268002B35D0D17E994211D01F4982
:10812000029103F12F006D2133258DF80D00ADF87C
:108130000E108DF80C50D37620691A4902AA00F06F
:1081400071FE9DF80130002BC3D0A268117F9942C7
:10815000BFD045F61B3103F12F00ADF808103425D0
:108160006D218DF80B00ADF80C108DF80A501377C7
:1081700020690C4902AA00F055FE05B0BDE8304068
:1081800002B07047D3762069074A064900F04AFEDC
:108190009DF80130002B9CD0D7E700BF1B5B313B23
:1081A00033376D00B4D202004CE002002DE9F047F5
:1081B000074686B0504803F041FF05464F4803F09C
:1081C0003DFFBB684E495B684E4A00912D1A08215D
:1081D0003846FFF769FFBB685868ADB2002800F069
:1081E000888003F02BFF84B2454803F027FFBB686B
:1081F0009968204482B211B13846FFF7D3FD424A54
:1082000000213846FFF7D8FE3C4803F017FF841CD6
:108210002C44394B3D4A0093A4B2234608213846EA
:10822000FFF742FFE21C3A4992B23846FFF7BAFD27
:10823000BB68DE68002E52D00024254620463278E6
:108240000134230102A9103B8AB173689847029850
:1082500098B10DF1080803F0F1FEA842EED9D8F864
:10826000000000283ED003F0E9FE85B2E6E7726820
:10827000D05802EB03080028EDD1012C2FD0254A5D
:10828000DFF888A00021384605F10209FFF794FEC7
:108290001FFA89F94FF0000814E073689847029BB1
:1082A000EBB102AC08210093524638464B46FFF72B
:1082B000FBFE61686A1D92B23846A9B1FFF772FDF4
:1082C00008F1010833784FEA081202A94046002B52
:1082D000E3D17468A35804EB0814002BE2D106B074
:1082E000BDE8F0870546A9E70B49386900F09AFD1B
:1082F000E6E7044678E700BF68E00200D8E1020044
:1083000058E0020080DD0200A4DB0200B0DB0200C6
:10831000B8DB0200CCDB020014DB0200022910B53E
:10832000044604D18368D3F848319B070BD42069F5
:10833000074A084900F076FD2069074A0549BDE86B
:10834000104000F06FBDBDE81040FFF72FBF00BF29
:1083500034E00200B4D2020038E002000CB470B580
:1083600084B008AB826853F8046B0193D2F84831AB
:108370005B07044603D5D37E8B420D4609D12069A5
:10838000314601AA00F004FE04B0BDE8704002B01E
:10839000704702F11B016846022203F001FEA36848
:1083A000002D5FD0DA7EAA4211D0324A02923322E7
:1083B00005F12F018DF80C206D228DF80D10ADF810
:1083C0000E20DD7620692C4902AA00F02BFD01AABF
:1083D0002069314600F0DCFD9DF80030A268002BDA
:1083E00035D0D17E994211D02249029103F12F005C
:1083F0006D2133258DF80D00ADF80E108DF80C5061
:10840000D37620691C4902AA00F00CFD9DF80130CA
:10841000002BB9D0A268117F9942B5D045F61B3127
:1084200003F12F00ADF8081034256D218DF80B00F5
:10843000ADF80C108DF80A50137720690E4902AA86
:1084400000F0F0FC04B0BDE8704002B07047D37695
:1084500020690A4A084900F0E5FC9DF80130002B2C
:1084600092D0D7E7DD762069044A034900F0DAFCB0
:10847000ADE700BF1B5B313BB4D202004CE0020011
:108480002DE9F041C3685B6890B0064688461868DD
:1084900003A9002201F03AFA002840F0AD80B8F1BB
:1084A000000F76D1B5683068002800F0A98003F08D
:1084B000C5FDC2B21046EB7F697E95F81EC0AA7654
:1084C00003448444B3FBF1F201FB1233501CC0B2ED
:1084D000BCFBF1F7013301FB17C1DBB201310137FE
:1084E00001282B75A8756975EF7505D94A4930695A
:1084F000D2B200F097FC2B7D012B05D95A1E4749BB
:108500003069D2B200F08EFC454A4649306900F02D
:1085100089FCB8F1000F0ED074E0022A4ED0039807
:1085200001F06AF8F3685B680022186803A901F09B
:10853000EDF900283ED103980023082204A901F098
:10854000BBF89DF810308DF82580DDE9051003F0AB
:108550000302012ACDE90701DFD1BDF81070DDE982
:108560000304C7F38312C3F3C2050AA992000823C8
:108570008DF82450C7F3831701F09EF8C4F39524B7
:10858000336900933A46204607AB0AA9FFF714F86F
:10859000C5E7039801F030F8B268D2F838310133FA
:1085A000C2F83831B568D5F8383103F00703012B2C
:1085B0003FF479AF012010B0BDE8F081BDF8125052
:1085C000C3F3C2038DF82430C5F389150827082D9D
:1085D0002C4628BF08243B46039822460AA901F0EE
:1085E0006BF82D1B3369214607AA0AA82744FFF719
:1085F0005BF8002DEBD192E7002010B0BDE8F081D0
:10860000024658E73046084A0221FFF7A7FE4046D7
:1086100010B0BDE8F08100BFECDB0200E4DB02003B
:1086200048E00200B4D20200F4DB020043680121FA
:108630009868FFF725BF00BFF0B54468A56883B010
:10864000AB6801911F78042F01D103B0F0BD206801
:1086500001A901F0EFF860B1FE1E18BF01263146F6
:108660002846FFF70DFF206801A901F0E3F8002874
:10867000F5D1019800F0BCFF032FE6D12846002178
:10868000FFF7FEFEE1E700BF01290AD0022904D16D
:108690008368D3F848319B0703D4034A0221FFF7CC
:1086A0005DBEFFF783BD00BF60DC020010B501298D
:1086B00082B004460BD002290B4616D08268D2F84D
:1086C0004811890703D4022B07D802B010BD2046F9
:1086D00002B0BDE81040FFF769BD5368084A0221A7
:1086E00002B0BDE81040FFF739BE53680193054C56
:1086F0001368054A0094FFF731FE02B010BD00BFB9
:10870000C8DC02009CCC0200BCDC020010B4836810
:10871000D3F84821C2F3400492070AD401290CD1AE
:10872000B3F8482164F3C302A3F848215DF8044B71
:1087300070475DF8044BFFF739BD5B68024A5DF88E
:10874000044B0221FFF70ABEC8DC02008368D3F89D
:108750004821920708D4012908D1B3F8482142F0F2
:108760000802A3F848217047FFF720BD5B68024A62
:108770000221FFF7F3BD00BFC8DC0200F0B583683B
:10878000D3F84821C2F34004920787B02AD40129C4
:108790002CD1D3F8405105B3184F06462846002384
:1087A000092203A900F088FF9DF81420B16828462B
:1087B0000132A031092300F07FFFB368049D03F16B
:1087C000A002009223463A46002130460134FFF7CA
:1087D000F3FB0DB1082CE1D1B368002283F8A0208F
:1087E00007B0F0BDFFF7E2FC07B0F0BD5B68044ADC
:1087F0000221FFF7B3FD07B0F0BD00BFE4DC0200CB
:10880000C8DC02008368D3F84821920708D4012904
:1088100008D1B3F8482142F00402A3F84821704778
:10882000FFF7C4BC5B68024A0221FFF797BD00BF97
:10883000C8DC020070B58568D5F84821930784B07C
:10884000C2F340061DD4012920D1C3685B681D68AE
:108850000446284601F0B4F8A368A968D3F8383173
:108860000291C0B2642202FB00F2B2FBF1F2D2B27A
:10887000CDE900203146094A2046FFF79DFB04B0B0
:1088800070BD04B0BDE87040FFF790BC6B68044A4F
:10889000022104B0BDE87040FFF760BDF0DC0200CB
:1088A000C8DC020010B48368D3F84821C2F3400446
:1088B00092070AD401290CD1B3F8482164F382024B
:1088C000A3F848215DF8044B70475DF8044BFFF7AF
:1088D0006DBC5B68024A5DF8044B0221FFF73EBDA8
:1088E000C8DC020030B48468D4F848219307C2F38E
:1088F000400509D401290AD1C4F83851C3685B681E
:1089000030BC186801F060B830BCFFF74FBC63683A
:10891000024A30BC0221FFF721BD00BFC8DC0200C3
:108920008368D3F8482192070FD401290FD110B5DD
:108930000446094A0949006900F074FAA368502204
:108940005A76A36818221A7610BDFFF72FBC5B6811
:10895000034A0221FFF702BD40E00200B4D2020048
:10896000C8DC020070B58568D5F84841A30782B01D
:10897000C4F3400611D4022914D81BD0D5F84811ED
:10898000114C124B124A11F0080F18BF2346314602
:1089900002B0BDE87040FFF70FBB02B0BDE8704009
:1089A000FFF704BC6B680B4A022102B0BDE87040BF
:1089B000FFF7D4BC53680193074C1368074A00942F
:1089C000FFF7CCFC02B070BD64D8020028DD0200C5
:1089D0002CDD0200C8DC02009CCC0200BCDC0200E2
:1089E00070B5012982B0044610D08568D5F8486179
:1089F000B3070BD402290FD1536801930A4C1368B3
:108A00000A4A0094FFF7AAFC02B070BD204602B0EB
:108A1000BDE87040FFF7CABB6B68054A022102B08F
:108A2000BDE87040FFF79ABC9CCC0200BCDC0200A1
:108A3000C8DC0200F0B5012983B0044611D0836878
:108A4000D3F84841A40744D4022947D853682A4997
:108A5000019313680091294A0221FFF77FFC03B0BC
:108A6000F0BD8568FFF7FCF828BBA368244920699E
:108A70001F7D9E7DFA2200F0D5F920692149FA2256
:108A800000F0D0F92046FFF7EBF8A0B9A3681A7DF3
:108A90006A76A368D21B9B7D2B7612F0FF0225D14C
:108AA0009B1B13F0FF02DAD02069174903B0BDE821
:108AB000F04000F0B7B9A368144A50215976A36872
:108AC000182119762046042103B0BDE8F040FFF7D5
:108AD00045BC03B0BDE8F040FFF768BB5B680C4ADB
:108AE000022103B0BDE8F040FFF738BC0949206916
:108AF00000F098F92B7ED3E79CCC0200BCDC02008E
:108B00009CDB0200DCDB0200ECDB020040DD02004B
:108B1000C8DC0200E4DB02002DE9F04F054687B017
:108B2000AE480C46904603F089FA0646AC4803F07E
:108B300085FAAB68AB495B68AB4A0091361A0821ED
:108B40002846FFF7B1FAAB685868B6B2002800F0C3
:108B50002E8103F073FA87B2A24803F06FFAAB6874
:108B60009968384482B211B12846FFF71BF99F4A31
:108B700000212846FFF720FAB8F1000F32D0002C70
:108B800000F0178108EB480804EB8808A1461FE0B5
:108B900003F054FAD9F8003007461BB1184603F029
:108BA0004DFA0744BE420ED2D9F80400002800F066
:108BB0008E8003F043FA86B2D9F8000018B103F0B2
:108BC0003DFA304486B209F10C09C84500F08180B5
:108BD000D9F804000028DBD1D9F80030002BF2D0FE
:108BE0000746DBE77E4803F029FA023006447B4B58
:108BF0007F4A0093B6B23346082128460336FFF772
:108C000053FA7C49B2B22846FFF7CCF8AB68DF686C
:108C1000002F52D00024264620463A780134230102
:108C200002A9103B8AB17B689847029898B10DF170
:108C3000080803F003FA8642EED2D8F800000028B4
:108C40003ED003F0FBF986B2E6E77A68D05802EB33
:108C500003080028EDD1012C2FD0674ADFF890A13E
:108C60000021284606F10209FFF7A6F91FFA89F943
:108C70004FF0000814E07B689847029BEBB102AC10
:108C800008210093524628464B46FFF70DFA6168CB
:108C9000721D92B22846A9B1FFF784F808F10108C5
:108CA0003B784FEA081202A94046002BE3D17C68CA
:108CB000A35804EB0814002BE2D107B0BDE8F08FF5
:108CC0000646A9E74D49286900F0ACF8E6E70646F4
:108CD00072E7434803F0B2F9871C3744BFB23F4BF9
:108CE000434A009307F103093B46082128461FFA2F
:108CF00089F907F1020AFFF7D7F95FFA8AFA3D49C5
:108D00004A462846FFF74EF8AAF1020A2EE03449F7
:108D10002846CDE900123A4A0821FFF7C5F96068F4
:108D200000283DD003F08AF9C6B22068002835D06B
:108D300003F084F95FFA80FB294803F07FF9AAEB7E
:108D40000606A6EB0B06301A10F0FF022AD12D49B9
:108D500028693A2200F066F8A168B1B14A4628466F
:108D6000FFF720F80C34A0453FF450AF63688BB197
:108D70002268002ACBD1009308211D4A3B46284691
:108D8000FFF792F9A1680029E8D11C49286900F091
:108D900049F8E7E72368002BEDD1DDE78346CBE711
:108DA0000646C2E71849286900F03CF8CFE70746B5
:108DB000D2E60B4803F042F902300644B6B2074B44
:108DC000009328460A4A33460821FFF76DF9F21C42
:108DD000084992B22846FEF7E5FF17E768E002006F
:108DE000D8E1020058E0020080DD0200A4DB0200AE
:108DF000B0DB0200B8DB0200CCDB020014DB0200B7
:108E00007CDD0200D4D202009CDB0200826842B109
:108E100010B5044643690168006998470023A360C0
:108E200010BD70470EB400B582B0039921B104ABF8
:108E300001AA019300F0ACF802B05DF804EB03B0B6
:108E4000704700BF2DE9F04F164683B0B142DDE90F
:108E50000C920F4605469A46C0F095800B464FF09F
:108E60000108B3FBF6F39E4208F10108F9D9D04599
:108E700038BFD04612F00103019302D1B9F1000FBF
:108E80005ED1AA68012403E00AF1FF3A06FB04F46C
:108E9000BAF1010FF8D8B7FBF4F39E42F6D9DFF828
:108EA000ECA007E0B442B4FBF6F31AD3AA681C4660
:108EB000B7FBF3F31AF803B0BBF10A0F04FB137707
:108EC00028D02B68511CA96003F802B0D5E9013203
:108ED0009A42E7D32846FFF799FFB4FBF6F3B44272
:108EE000E4D2019B9BB1B9F1000F10D02024C845FA
:108EF00009F1FF390BD2AB682A68591CA960D45418
:108F0000D5E901329A4214D2B9F1000FEFD103B082
:108F1000BDE8F08F511C2B68A9604FF00D019954EA
:108F2000D5E901329A42CCD32846FFF76FFFAA68F1
:108F3000C7E72846FFF76AFFB9F1000FD7D1E6E788
:108F400093071AD42024AA68C84502F1010199D2D6
:108F50002B68A9609C54D5E901329A4209F1FF3986
:108F600003D2B9F1000FEFD18CE72846FFF74EFF8F
:108F7000AA68B9F1000FE7D184E7BAF1000F0CBF7E
:108F800030242024DFE74FF0010870E7E8E1020019
:108F9000002900F054822DE9F04FDFF8B8950C78E5
:108FA00085B0064690460D464FF00D0A10E00A2C9B
:108FB000B36800F0AD803268591CB160D454D6E972
:108FC00001329A4280F0A0802C78002C00F087803B
:108FD0000135002C00F08380252CE8D1294600279C
:108FE0000D4611F8012B2D2A00F08880302A00F060
:108FF00088802B2A7AD02A2A00F09980A2F13003A7
:10900000092B4FF000040BD804EB840402EB44045A
:1090100015F8012FA2F13003092BA4F13004F3D984
:109020002E2A00F09080002301E015F8012F02F0B5
:10903000FB016829F9D0252A00F07781583AD1B28E
:10904000202947D8202A45D8DFE812F0350144000E
:1090500044004400440044004400440044004400F0
:109060004400430113014400440044004400130140
:10907000440044004400440044004400D200440042
:109080004400A20044009400440044003501012043
:109090009842024638BF1A460292002C40F0508196
:1090A000B80740F16E81002B40F04E821C46BBF1A8
:1090B000000FC0F20A827A0700F11A8207F0030259
:1090C000022A00F0EA81CDE9004759460A223046DB
:1090D000FFF7B8FE01352C78002C7FF479AF337B95
:1090E000002B40F01C8105B0BDE8F08F0D4611F853
:1090F000012B2D2A47F004077FF478AF47F00107D2
:109100006EE747F002076BE73046FFF77FFE5BE74D
:109110003268591CB16002F803A0D6E901239342DA
:10912000FFF449AF3046FFF771FEB36843E7D8F864
:1091300000301A1DC8F800206A781C682E2A05F134
:1091400001057FF470AF6A78A2F13003092B05F1B5
:1091500001054FF000033FF66AAF03EB830302EB18
:10916000430315F8012FA2F130010929A3F13003BF
:10917000F3D95CE7D8F80020111DC8F80010116879
:109180003046CDE900470A22FFF75CFE0135A2E731
:10919000D8F800301A1DC8F8002017F00107D3F8DE
:1091A00000B040F0F080BBF1000F03D0584602F051
:1091B00045FF0746BC4240F24381002C00F040814D
:1091C000202205E0BC4200F03B81002C00F03881F9
:1091D000B1683368481CB0605A54D6E901309842EF
:1091E00004F1FF34EED33046FFF710FE2022E9E70A
:1091F000D8F80020131DC8F80030B368316817682C
:10920000581C3022B060CA54D6E90123934280F042
:10921000EF803268581C7821B060D154D6E9013211
:109220009A4280F0E0800F2F03D93B461B090F2B99
:10923000FCD84FF0805406E00F2C4FEA14137FF651
:1092400049AFB2681C46B7FBF4F319F803B0BBF1A1
:109250000A0F04FB137754D03368511CB16003F834
:1092600002B0D6E901329A42E6D33046FFF7CEFD8E
:10927000E2E7D8F80020111DC8F80010D2F800B0BD
:109280008BEAEB72A2EBEB72092A7FF700AFDFF8F3
:10929000C8C2012011466329ACFB02E200F10100C3
:1092A0004FEAD202F6DC9842024638BF1A460292D2
:1092B000002C45D1F4E6D8F80020111DC8F80010A4
:1092C00011683046CDE900471022FFF7BBFD01359C
:1092D00001E7D8F800301A1DC8F800201C78B368E0
:1092E0000A2C00F011813268591CB160D454D6E9BF
:1092F00001329A42FFF4EEAE3046FFF787FD0135AA
:10930000E9E63368511CB16003F802A0D6E90132E6
:109310009A42A1D33046FFF779FDB2689CE7304608
:1093200005B0BDE8F04FFFF771BDB3683168581C58
:10933000B060CA54D6E901329A42DDD20135CAE69C
:10934000BBF1000F59DB7A0757D4B80702D5002BC1
:109350003FF4ADAEF9073FF5AAAE94B120220299D1
:10936000A142BFF4A4AEB168481CB060306842545A
:10937000D6E90101814204F1FF3480F0D480002C51
:10938000EDD1002493E69BF80030002B00F0E08044
:10939000B0685F46CBF101020A2B02EB070B3CD011
:1093A000411CB16031680B54D6E90130984226D295
:1093B00017F8013F002BEFD15C457FF68BAE2027DD
:1093C00002E05C453FF486AEB2683368511CB16080
:1093D0009F54D6E901329A4204F1FF34F1D330466A
:1093E000FFF714FDEDE73046FFF710FDB2681AE70E
:1093F0003046FFF70BFDB3680BE7013CA5E73046AD
:109400000292FFF703FD17F8013F002BD4D0029A18
:10941000B0680A2B02EB070BC2D1411CB160316866
:1094200001F800A0D6E901108842B9D33046CDE951
:109430000232FFF7EBFCDDE90232B068B0E77047BB
:109440009BF80040002C3FF445AE0A2CB0680ED0CB
:109450003368421CB2601C54D6E90130984214D2E1
:109460001BF8014F002C3FF435AE0A2CF0D13368C5
:10947000421CB26003F800A0D6E901309842E7D35D
:109480003046FFF7C3FCB068E2E73046FFF7BEFCAA
:109490001BF8014F002CD8D11CE6002B7FF413AE33
:1094A0008CB130220299A142BFF40DAEB168481CC4
:1094B000B06030684254D6E90101814204F1FF34C2
:1094C0003BD2002CEED10024FDE5B1684A1CB2600D
:1094D00032682D205054D6E901219142CBF1000B86
:1094E000FFF4ECAD30460393FFF790FC039BE5E5FA
:1094F000B1684A1CB26032682B205054D6E9012171
:109500009142FFF4DBADEDE73268591CB16002F81F
:1095100003A0D6E901239342FFF4E5AE3046FFF7FE
:1095200075FCB368DFE630460393FFF76FFC039BDF
:109530002022002C7FF413AF23E730460393FFF77C
:1095400065FC039B3022BCE7F9073FF5B0AD18E797
:109550009B4631E7E8E10200CDCCCCCC2DE9F041CF
:10956000058B0331043D4E198046B6FBF5F6FEF738
:109570002BFBA0B3F6B24FF48073013E0446C580C6
:10958000C0F8008083802BD00346002508E0627974
:10959000AE4202F1010262713860C0F800801FD053
:1095A00040461F46FEF710FB013503460028EED16A
:1095B0006779791E17D02246013399421268FBD190
:1095C000D2F800805FB12668002501E03446366895
:1095D000214601354046FEF71DFBAF42F6D8002478
:1095E0002046BDE8F08120682146FEF713FBF6E730
:1095F00004300121FEF74ABA2DE9F0410121044669
:109600000430FEF751FA10F0FF0301D0BDE8F081FD
:109610006779791E16D02246013399421268FBD130
:10962000D2F80080002FF1D02668002501E03446F2
:109630003668214601354046FEF7ECFAAF42F6D8CF
:10964000BDE8F08120682146BDE8F041FEF7E2BAAE
:109650002DE9F8430546C6884079144606FB00F21A
:10966000043A04EB030C1F1D624538BFD41ABE42F6
:109670008846B7FBF6F106FB117002D801392D6858
:10968000FCD1371AA74228BF27469CB14FF00009EA
:109690000430E41B28443A4608EB090102F080FC40
:1096A000A642B9442D6837464FF0000028BF274630
:1096B000002CEDD1BDE8F8832DE9F8430546C688B6
:1096C0004079144606FB00F2043A04EB030C1F1D1C
:1096D000624538BFD41ABE428846B7FBF6F106FB96
:1096E000117002D801392D68FCD1371AA74228BF62
:1096F00027469CB14FF0000904302918E41B3A4674
:1097000008EB090002F04CFCA642B9442D6837462C
:109710004FF0000028BF2746002CEDD1BDE8F883AC
:109720008368D3F84831C3F340029B0770D4012902
:109730006AD82DE9F04F384B384C39491B1B8DB096
:1097400081469808A1FB00011B2B0B913CD9DFF847
:10975000E0A093462368E268D3F8088009920020CD
:10976000A768FEF779F823681E685A68964246D8BB
:10977000961B0020FEF778F894F810E063696425E2
:1097800005FB06FC524605FB08F50821B5FBF7F57D
:1097900048460A95BCFBF7FCBEF1000F17D1214DDE
:1097A000CDF81480CDE906750A9DCDE90375099DB4
:1097B0000095CDE901C6FEF7D1FD0B9B0BF1010B26
:1097C0005B4504F11C04C5D80DB0BDE8F08F164A06
:1097D000CDF81480CDE906720A9ACDE90372099A90
:1097E0000092CDE901C652460821FEF7B7FD0B9B5A
:1097F0000BF1010B5B4504F11C04ABD8E4E7A36853
:10980000013313449E1BB4E7084A0221FEF7A6BDAC
:1098100000221146FFF780B960E8020044E8020028
:109820002549922480E202008CE2020074DA0200F0
:1098300004E20200F8B5044600200E46FEF70CF8DC
:109840002368A56818685A68AA4234BF013200220A
:10985000904212D058685A6895420BD800225A603C
:10986000E268531E072B19D8DFE803F0433E18398E
:109870001818183101325A60F2E7227C002A3FD1D1
:10988000586859688D4238D85A602268A1681368B0
:109890008B4234BF013300231360E1E76368314634
:1098A00000FB023002F07CFB2268136851688B4297
:1098B00082BFA06801300918CB1A9168994238BF5D
:1098C000936000240020FDF7CFFF2046F8BD6368B9
:1098D000D6E9006703EBC000C0E90067E4E763680E
:1098E000326843F82020DFE76368328823F81020CD
:1098F000DAE7636832781A54D6E701315960C4E771
:1099000004240020FDF7B0FF2046F8BDF8B504465A
:1099100000200E461746FDF79FFF23681D68586814
:10992000854211D019682FB91A68A068824238BFE1
:10993000571C1F60E268531E072B0BD8DFE803F0AB
:1099400037160A200A0A0A2A05240020FDF78CFF90
:109950002046F8BD6368304601FB023102F020FB6F
:1099600000240020FDF780FF2046F8BD636833F82F
:109970001130338000240020FDF776FF2046F8BD2B
:10998000636853F82130336000240020FDF76CFF3A
:109990002046F8BD636803EBC101D1E90023002430
:1099A000C6E900230020FDF75FFF2046F8BD63688D
:1099B0005B5C337000240020FDF756FF2046F8BDA5
:1099C00003689868704700BF036800229A60704778
:1099D00030B585B0047845688DF80040D0E9024084
:1099E000064A074B039053F82130019552F8211095
:1099F0008DF808406846984705B030BDFC06002049
:109A00000407002030B585B0047845688DF8004023
:109A1000D0E90240064A074B039053F821300195E4
:109A200052F821108DF808406846984705B030BDBF
:109A3000FC060020040700202DE9F047DFF87480C1
:109A400090F800E04B7F08F80E300D4607461646AA
:109A50000FCD88B06C460FC495E80F003D78DFF855
:109A60005890DFF858C018F8055049F82E6084E87F
:109A70000F004CF82E00CDF810E05DB1002E0B4A1F
:109A8000694607F1040008BF324600F007FF08B03E
:109A9000BDE8F087002E064A694607F10C0008BFB2
:109AA000324600F061FC08B0BDE8F087D1990200B1
:109AB000059A0200E00A002004070020FC060020AE
:109AC00010B4034653E8000F00EA010243E8002403
:109AD00094F0000FF6D15DF8044B704710B5174BAA
:109AE0001A6882B062B10021154A19601B6850796A
:109AF00000934FF080410123009CC1F8083398B1D6
:109B0000104B1A68BAB100221A601B6801934FF01B
:109B1000804202210A4B0198C2F808131B680120F9
:109B200002B0BDE810401847116853718847054BD3
:109B30001A68002AE7D102B010BD00BF0001004042
:109B40000C070020040100402DE9F047002384B0F9
:109B5000CDE90233D54A1168012900F040821E4642
:109B6000D34B1A68012A00F02C82D24B1A68012AC2
:109B700000F01982D04B1A68012A00F00682CF4B00
:109B80001A68012A00F0F381CD4B1A68012A00F00F
:109B9000E081CC4B1A68012A00F0CD81CA4B1A68CB
:109BA000012A00F0A181C94B1A68012A20D0E6B130
:109BB000C74F00240125A30003F18043354203F57C
:109BC000C0434FEA45050BD0D3F8100557F82420C1
:109BD000D3F81015C0F30520C1F3014102B190473D
:109BE0000134082CE7D1002E17DB04B0BDE8F08764
:109BF00000221A601B6801934FF0A042019BD2F82B
:109C00002015B44B0291C2F82015D3F820250392F9
:109C1000C3F82025002E40F08B81AD4CAD4E0125C0
:109C20004FF0A04794F96000431C46D0C0F3C20235
:109C300004AB1A4400F0070312F8082C05FA03F3EA
:109C40001A42C1B200F03F0037D01F2800F2258130
:109C500002464FF0A04909EB820304EB000ED3F853
:109C600000C7D3F8008728F44038C3F80087CCF346
:109C7000014C9EF93080D3F800E754F82880BCF1FD
:109C8000020F0CBF4FF4403A4FF4003A05FA02F2CB
:109C90004EEA0A0EC3F800E7C9F82025B8F1000F14
:109CA0000BD08909032900F0B381BCF1020F00F049
:109CB000BE81BCF1030F00F0A88194F96100411C42
:109CC00046D0C0F3C20204AB1A4400F0070312F8F6
:109CD000082C05FA03F31A42C1B200F03F0037D056
:109CE0001F2800F2DE8002464FF0A04909EB8203F4
:109CF00004EB000ED3F800C7D3F8008728F44038EF
:109D0000C3F80087CCF3014C9EF93080D3F800E70C
:109D100054F82880BCF1020F0CBF4FF4403A4FF4C6
:109D2000003A05FA02F24EEA0A0EC3F800E7C9F853
:109D30002025B8F1000F0BD08909032900F06D81AF
:109D4000BCF1020F00F06B81BCF1030F00F06281E7
:109D500094F96200421C46D0C0F3C20204AB1A441C
:109D600000F0070312F8082C05FA03F31A42C1B2F7
:109D700000F03F0037D01F2800F2AE8002464FF0BF
:109D8000A04909EB820304EB000ED3F800C7D3F817
:109D900000879EF930E028F44038C3F80087CCF300
:109DA000014CD3F800A754F82E80BCF1020F0CBF71
:109DB0004FF4403E4FF4003E05FA02F24EEA0A0E1E
:109DC000C3F800E7C9F82025B8F1000F0BD08909C6
:109DD000032900F01381BCF1020F00F02481BCF1D3
:109DE000030F00F0088194F96300431C45D0C0F3D1
:109DF000C20204AB1A4400F0070312F8082C05FA5B
:109E000003F31A42C1B200F03F0036D01F2867D8D2
:109E100002464FF0A04909EB820304EB000ED3F891
:109E200000C7D3F800879EF930E028F44038C3F823
:109E30000087CCF3014CD3F800A754F82E80BCF176
:109E4000020F0CBF4FF4403E4FF4003E05FA02F201
:109E50004EEA0A0EC3F800E7C9F82025B8F1000F52
:109E60000BD08909032900F0CE80BCF1020F00F06D
:109E7000E280BCF1030F00F0C380D7F820250292E6
:109E8000C7F82025D6F820350393C6F820351343AC
:109E90007FF4C8AE04B0BDE8F08701F01F02B14600
:109EA000D9E601F01F02B14620E700BF0061004083
:109EB00004610040086100400C61004010610040F6
:109EC00014610040186100401C6100407C6100404A
:109ED000180700200003005001F01F02B14650E7B0
:109EE00001F01F02B14696E7554AD2F80423120644
:109EF0007FF559AE00221A6019680091196E00981A
:109F0000012903F1600346F080067FF450AE1A6029
:109F10001B6801934FF0A042019BD2F82015494BDA
:109F20000291C2F82015D3F820250392C3F820250A
:109F300046F000463CE6424AD2F8042351067FF53B
:109F40002DAE00221A601B680093009B46F040066D
:109F500024E63B4AD2F8042390067FF51AAE00228D
:109F60001A601B680093009B46F0200611E6344AF5
:109F7000D2F80423D4067FF507AE00221A601B68CE
:109F80000093009B46F01006FEE52D4AD2F804230C
:109F900015077FF5F4AD00221A601B680093009B43
:109FA00046F00806EBE5264AD2F8042357077FF56A
:109FB000E1AD00221A601B680093009B46F0040686
:109FC000D8E51F4AD2F8042392077FF5CEAD0022D0
:109FD0001A601B680093009B46F00206C5E518490D
:109FE000D1F8046316F001063FF4BAAD13601368AC
:109FF0000093009BB4E502297FF4F5AEC047F2E67A
:10A0000002297FF43AAFC04737E702297FF455AE03
:10A01000C04752E602297FF49BAEC04798E601296B
:10A020007FF496AEF9E701297FF4DDAEE6E701297A
:10A030007FF443AEECE701297FF41FAFE3E700BFF5
:10A04000006000400003005010B54FF0804386B020
:10A05000D3F80443620705D5D3F8082103F58473C8
:10A06000002A4ED1A30603D52A4B1A68002A3FD1F5
:10A07000600603D5284B1A68002A2FD1210602D585
:10A08000264B1A680ABBE20502D5254B1A6892B91D
:10A09000A3050ED5234B1A685AB100221A601A681C
:10A0A000214B0592059A1B68022006B0BDE81040BE
:10A0B000184706B010BD00221A601B4A1B680493A3
:10A0C00001201368049A9847E2E700201860164AB6
:10A0D0001B6803931368039A9847D4E700221A6019
:10A0E000124A1B68029301201368029A9847C5E739
:10A0F000002018600D4A1B6801931368019A984765
:10A10000B6E700221A600A4A1B6800931368009A97
:10A110009847A7E714010040180100401C010040C7
:10A1200020010040240100408C0700208807002007
:10A130008407002008B5FFF787FFBDE80840FFF758
:10A14000CDBC00BF014B1B68184700BF9007002023
:10A1500038B50C4B984213D100200D46FDF77CFB1F
:10A16000094B1C7924B10020FDF77EFB112038BD7E
:10A17000012220461D601A71FDF776FB204638BD8E
:10A18000002038BD0020004090070020034B98427B
:10A1900003D1034B00221A601A717047002000405F
:10A1A0009007002030B56E4AD2F8043399058BB081
:10A1B00068D5D2F82431002B64D00023C2F82431B2
:10A1C000D2F8243101934FF40171664B0198C2F823
:10A1D000081393F8291009B901215160604902223E
:10A1E0008DF81820D1F88024C1F880249869D968A6
:10A1F000099200240025CDE90710C3E90645D3E9FB
:10A20000001206A89047564AD2F81C31C3B1554BEC
:10A210005869196A88426AD993F8281001F0FF003A
:10A22000002964D1C2F81C01D2F81C1103910399D2
:10A230009C68186A196A205C01311962C2F81C0511
:10A24000474AD2F84431DBB10021464BC2F84411F1
:10A25000D2F8440193F829100090009809B1012127
:10A2600011609A6962B1586AD96800229A61012224
:10A27000CDE907108DF8182006A8D3E90012904701
:10A280000BB030BD364AD2F804335B07BBD5D2F8E9
:10A290000831002BB7D0334B996900293ED00021FB
:10A2A000C2F80811D2F8081104910499D868596AC3
:10A2B000D2F8182542545A6A996901325A625A6A88
:10A2C0008A42A0D1DA69002A31D0DD685C6A186957
:10A2D0009A6101210022D860DA615A628DF8181063
:10A2E000CDE90754D3E9001206A890478BE71C4A32
:10A2F0000021C2F81C11D2F81C210292029A5A695C
:10A30000002A9DD058699A688DF8181008905961F4
:10A31000079206A8D3E90012904791E7C2F8081106
:10A32000D2F8080105900598D2F81825C7E793F8E8
:10A33000292012B90A4A01215160094A4FF40171DA
:10A34000C2F80813596ADA680891002401200792BC
:10A350008DF81800D3E900129C6106A8904752E7D7
:10A3600000200040980700202DE9F041DFF8E4814B
:10A3700006792C2303FB068382B093F82A30002B46
:10A3800040F09E8005460C4600686D491746FFF771
:10A39000DFFE002840F090802368591C19D01F2B45
:10A3A0004FF001028ABF67494FF0A04103F01F033D
:10A3B00002FA03F3C1F8083523681F2B86BF03F0A8
:10A3C0001F03604A4FF0A04203F5E073032142F8F7
:10A3D000231063685A1C0BD01F2B86BF03F01F038A
:10A3E000584A4FF0A04203F5E073002142F82310D1
:10A3F0002B68A269C3F82425217D637D2A680B435D
:10A40000C2F86C35D4E900122B68C3F81425C3F8E0
:10A410000C15237D012B5FD02C2303FB06F308EBE7
:10A4200003025760226948F803202A6897B3002185
:10A43000237FC2F81C11D2F81C2100922A68009FC9
:10A44000C2F84411D2F844112A6801913E4C019996
:10A45000C2F804432A6842F3073100294FEA123256
:10A4600032DB01F1604101F561415B01DBB281F852
:10A4700000332A6842F30733002B4FEA123109DB1D
:10A48000324C01225B0901F01F0102FA01F144F88C
:10A4900023102A682C2303FB0686012400230421B1
:10A4A000C2F80015C6E9063386F82A4086F8293036
:10A4B000736102B0BDE8F081112002B0BDE8F08107
:10A4C000082002B0BDE8F081214902F00F025B01D3
:10A4D0001144DBB20B76CCE7A368591C0BD01F2BC1
:10A4E00086BF03F01F0317494FF0A04103F5E07347
:10A4F000002241F82320E3685A1C1AD01F2B8ABF80
:10A5000010494FF0A04103F01F03012202FA03F3A8
:10A51000C1F80835E3681F2B88BF03F01F0303F55C
:10A52000E0738CBF07494FF0A041032241F823207C
:10A53000E3682A68A168C2F80835C2F810156BE70D
:10A54000A5A10200000300508000020000E100E02D
:10A55000FCEC00E098070020F8B53E4F0479026853
:10A560002C2303FB047300215B68C2F80015C3B100
:10A570000368394AC3F80823036843F30732002A03
:10A580004FEA13310EDB5209344D2032012301F022
:10A590001F0103FA01F145F82210BFF34F8FBFF3FB
:10A5A0006F8F0368D3F80C65D3F81455D3F80825DA
:10A5B000D3F810154FF0FF3CC3F814C5C3F80CC511
:10A5C00003686645C3F808C5C3F810C50CD01F2E34
:10A5D00086BF06F01F06224B4FF0A04306F5E0763B
:10A5E0004FF0020C43F826C06E1C0BD01F2D86BF07
:10A5F00005F01F051A4B4FF0A04305F5E075022644
:10A6000043F825604D1C0BD01F2986BF01F01F01A8
:10A61000134B4FF0A04301F5E071022543F82150A0
:10A62000531C0BD01F2A86BF02F01F020C4B4FF0A9
:10A63000A04302F5E072022143F822100068FFF700
:10A64000A5FD2C2303FB0474002384F82A306360E7
:10A65000F8BD00BF980700208402020000E100E07E
:10A66000000300502DE9F041314E05792C2303FB06
:10A6700005630446586984B000284CD15A6199603A
:10A68000186283F828002268C2F81C01D2F81C1155
:10A69000226802910121029F91602268D3F808C0CC
:10A6A000C2F81C01D2F81C11019101991F6A196AA4
:10A6B0001CF8077001311962C2F81C755A6812B192
:10A6C00004B0BDE8F0815F691A6A216897421BD91E
:10A6D000864602E093F828200ABBD1F81C21002A04
:10A6E000F8D0C1F81CE1D1F81C210392039AD3F8E9
:10A6F00020801A6A1CF8088001321A62C1F81C8591
:10A700001A6A9742E9D82168D1F81C31002BFBD096
:10A710000123CB6004E0112004B0BDE8F0810F20DC
:10A720002C2303FB056500236B6104B0BDE8F081B9
:10A730009807002030B5574BD3F824218BB0002A5E
:10A7400075D00022C3F82421D3F8242104920222D8
:10A750008DF81820049AD3F880144F4AC3F8801457
:10A760000991D3F83C15D36808910024002507937C
:10A77000C2E906451168536806A89847454BD3F8C7
:10A78000442152B10021444AC3F84411D3F8440192
:10A79000916903900398002938D13E4BD3F82021CA
:10A7A0005AB10021C3F82011D3F8202102920120D0
:10A7B000394A029CD8605069D8B9364BD3F8582131
:10A7C000AAB10021C3F85811D3F85801324A0190B8
:10A7D0000198506958B1D3F84C05936808908DF8EA
:10A7E00018105161079306A8D2E9001398470BB0DF
:10A7F00030BDD3F84C05936808908DF8181051615E
:10A80000079306A8D2E900139847D6E7D3F83C355A
:10A81000D168089300240025012307918DF8183092
:10A82000C2E90645D2E9001306A89847B5E7D3F870
:10A8300010110029A2D0C3F81021D3F81011164826
:10A84000059105998469D3F83C15A14296D1C46954
:10A85000A4B1D3F80052846125F02005C3F800525A
:10A86000D0E90343C26101220891C36001684368D3
:10A8700007948DF8182006A898477FE7C26884617E
:10A880000123CDE907218DF81830D0E9001306A87F
:10A89000984773E700200040C80700202DE9F043E7
:10A8A0000779824E07EBC70306EB830387B093F863
:10A8B0002030002B40F0B98004460D4600687C49EA
:10A8C0009046FFF745FC002840F0AB802B68591CF0
:10A8D0004FEAC70919D01F2B4FF001028ABF7549F3
:10A8E0004FF0A04103F01F0302FA03F3C1F808354B
:10A8F0002B681F2B86BF03F01F036E4A4FF0A04248
:10A9000003F5E073032142F823106B685A1C0BD047
:10A910001F2B86BF03F01F03664A4FF0A04203F5CA
:10A92000E073002142F823102368AA69C3F82425A4
:10A93000297D6A7D23680A43C3F86C25D5E9003177
:10A940002268C2F80C35C2F814152B7D012B78D083
:10A9500009EB070206EB8203C3F804802B6946F873
:10A960002230B8F1000F4BD021682B7F524D0022CE
:10A97000C1F81021D1F8101101912168DDF804C04F
:10A98000C1F82021D1F8201102912168DDF808C01A
:10A99000C1F82421D1F8241103912168DDF80CC0FD
:10A9A000C1F84421D1F8441104912168DDF810C0A8
:10A9B000C1F85821D1F85811226805910599C2F8BB
:10A9C0000453226842F3073100294FEA123230DB88
:10A9D00001F1604101F561415B01DBB281F80033B7
:10A9E000226842F30733002B4FEA123109DB334D63
:10A9F00001225B0901F01F0102FA01F145F8231061
:10AA000022684F4406EB8706002301240821C2F880
:10AA10000015C6E9063386F82040736107B0BDE82B
:10AA2000F083112007B0BDE8F083082007B0BDE82F
:10AA3000F083234902F00F025B011144DBB20B7675
:10AA4000CEE7AB68591C0BD01F2B86BF03F01F034A
:10AA500018494FF0A04103F5E073002241F823208C
:10AA6000EB685A1C1AD01F2B8ABF12494FF0A04125
:10AA700003F01F03012202FA03F3C1F80835EB6863
:10AA80001F2B88BF03F01F0303F5E0738CBF094938
:10AA90004FF0A041032241F82320EB682268A96807
:10AAA000C2F80835C2F8101552E700BFC8070020E9
:10AAB00035A70200000300501003420000E100E04F
:10AAC000FCEC00E02DE9F0410579564C05EBC5039F
:10AAD00004EB830301465B68006882B0EE00C3B1FB
:10AAE000514BC0F808330B6843F30732002A4FEA92
:10AAF00013330EDB5209DFF838C12032012703F08F
:10AB00001F0307FA03F34CF82230BFF34F8FBFF354
:10AB10006F8F721904EB8202D0F80032926923F031
:10AB20002003C0F8003242B10023C0F84431D0F80D
:10AB3000443100930123009A43600023C0F8583148
:10AB4000D0F8583101937319012204EB8303019F5C
:10AB5000C2609A69D0F85831002BFBD01AB1D0F8F6
:10AB60004431002BF6D00023C0F800350B684FF0BD
:10AB7000FF38D3F80CE5D3F814C5D3F80825D3F87B
:10AB80001075C3F80C85C3F814850B68C645C3F867
:10AB90000885C3F810850CD0BEF11F0F86BF0EF0DC
:10ABA0001F0E22494FF0A0410EF5E07E022341F82E
:10ABB0002E30BCF1FF3F0CD0BCF11F0F86BF0CF054
:10ABC0001F0C1A494FF0A0410CF5E07C022341F81C
:10ABD0002C30791C0BD01F2F86BF07F01F0713499D
:10ABE0004FF0A04107F5E077022341F82730531CCE
:10ABF0000BD01F2A86BF02F01F020C494FF0A04164
:10AC000002F5E072022341F82230FFF7BFFA354423
:10AC100004EB8504002384F82030636002B0BDE8B3
:10AC2000F08100BFC807002010034200000300505D
:10AC300000E100E0F0B401F06044B4F1005F82B0E4
:10AC40002CD10579274E05EBC50406EB8404034699
:10AC50006069EF0000283ED16261A1601A68C2F805
:10AC60002001D2F820C11A68CDF804C0DDF804C074
:10AC7000C2F85801D2F8582100921A68DDF800C0D5
:10AC8000D4F814C0C2F84415C2F848C51A680121A6
:10AC90009160626832B102B0F0BC7047102002B01F
:10ACA000F0BC70471A6800E0C8B9D2F82011D2F899
:10ACB00058010029F8D090B90121D1601B68D3F860
:10ACC0005821002AFBD07B1906EB830300225A612E
:10ACD00002B0F0BC7047112002B0F0BC70470F20EA
:10ACE000F1E700BFC807002010B5094B09491A68F1
:10ACF000094C82B0002301208DF804008DF8073044
:10AD0000ADF8053001A823700B70904702B010BD5C
:10AD1000180900201C090020EC070020704700BF24
:10AD200000B583B00D4B0E4900228DF80420D3F8F6
:10AD30002025ADF80620D3F8C0040A4A0968136834
:10AD400000280CBF4FF480704FF00120034301A88E
:10AD50001360884703B05DF804FB00BF0070024039
:10AD600018090020F407002010B5184B1B68082BA9
:10AD700082B002D1164B00221A60164B16499A7BFC
:10AD80000020032A08700AD01C687CB1134B0122F2
:10AD90001A60BFF36F8FBFF34F8F02B010BD6FF417
:10ADA00080310F48FEF78CFE02B010BD6FF4803189
:10ADB0000B48FEF785FE0B4BADF8064006221B68DC
:10ADC0008DF8042001A8984702B010BD3001001092
:10ADD0001C7C0240F8070020ED0700204C70024068
:10ADE000F00700201809002010B5274BD3F80044C5
:10ADF000C3F8004482B0BFF36F8FBFF34F8FBFF330
:10AE00006F8FBFF34F8FE1050ED5204B20491A6895
:10AE1000022000238DF80730ADF805308DF80400CE
:10AE2000012301A80B709047A2050DD5174B1849B7
:10AE30001A68032000238DF804008DF80730ADF860
:10AE4000053001A80B70904763051AD5104B1A788E
:10AE5000BAB10D4C0F48012100221A70C4F8081530
:10AE60000160BFF36F8FBFF34F8F084BADF8052024
:10AE700004211B688DF807208DF804100DEB0100EC
:10AE8000984702B010BD00BF0070024018090020B2
:10AE9000EC0700205870024070B53E4B93F900203B
:10AEA0001C78002A82B01ADB3B4B3C491D680A68BB
:10AEB00004F00F031033012000FA03F31A432B426E
:10AEC0000A600AD1364B8DF8070006221B688DF800
:10AED00006408DF8042001A8984702B070BD04F028
:10AEE0000F01304B2D4833F81130026803F18043D5
:10AEF00003F51C3301258D401E682A4309B2026008
:10AF0000DEB100221A60BFF36F8FBFF34F8F264B65
:10AF1000802C1B6822D0082B08BF244B244808BF74
:10AF20001A60244B03EB01120026927B0670032A61
:10AF30004FEA011129D05B583BB3174B1B682B40DC
:10AF4000CBD117498DF8073006220B688DF80640E3
:10AF50008DF8042001A8984702B070BD082B08BFE7
:10AF6000124B134908BF1A60134B93F89E20002020
:10AF7000032A087003D0D3F89030002BDDD16FF096
:10AF800001010548FEF79CFDD7E7E9430248FEF7BB
:10AF900097FDD2E71C090020F0070020F4070020ED
:10AFA000180900203CE30200300100101C7C024024
:10AFB000ED07002088080020F80700202DE9F04F59
:10AFC000DFF824B2DFF82892DBF80040D9F800302F
:10AFD000234089B000F0988013F0012400F097809E
:10AFE00094FAA4F4002C00F09780B4FA84F70F2FA1
:10AFF0003D461DD8DFF8FCB10FFA87FA0BEB0A16B5
:10B000004FEA0A1AB2895BF80A30716806A89847B5
:10B0100067F07F0801233C464FFA88F803FA07F7E8
:10B0200008B94BF80A00FB43019305F008072AE032
:10B030000123A7F1100503FA07F7634B5FFA85F8C0
:10B0400003EB0816FB43019315F0080344464FFA3F
:10B0500085FA029369D145460022029205F5947360
:10B060005A4A52F82330B28971683768039306A8A8
:10B07000B847069A1AB1079A039B93427BD8029F5E
:10B08000D04600B93060524B1B68082B02D1514B9F
:10B0900082221A60D9F800200198B368079902400B
:10B0A0000B44C9F800204C4AB360B8F1000F4FF0D0
:10B0B00001031370069B47DB002F4ED0434AAD00BF
:10B0C000C2F8A0372823C2F8A4172B44DBB203F13F
:10B0D000804303F51C3301221A60BFF36F8FBFF367
:10B0E0004F8F3E4A3E4B3F4913EA280838BF9046EF
:10B0F00038F8142002F1804202F51C3201E00B689E
:10B1000013B91368002BFAD009B0BDE8F08F93FA99
:10B11000A3F4002C7FF469AF4FF0100A4FF0FF3317
:10B12000294E0193D046254696E7284BD3F8C034E4
:10B13000DA0347D53568B2897168029F06A80023F3
:10B14000A847D04625469CE777B3204AAD00C2F811
:10B15000A0360423C2F8A416B7E705EB85029200D7
:10B1600002F1804202F51C32AD00C2F800372823FC
:10B17000C2F80417A9E702240199B4731A48FEF72C
:10B180009FFC1A4B8DF8174006221B688DF816801D
:10B190008DF8142005A89847DBF80040D9F8003056
:10B1A00023407FF419AFAFE705EB8502920002F16F
:10B1B000804202F51C32AD00C2F800360423C2F80A
:10B1C000041682E745464EE7F8070020007002406B
:10B1D000300100101C7C0240ED07002050E302000B
:10B1E0003CE3020000710240F00700201809002033
:10B1F000F40700208808002010B5184B1B68082BA6
:10B2000082B002D1164B00221A60164B164C93F8EE
:10B210005E200021032A217005D01B6D6BB1FFF762
:10B22000CDFE02B010BD11486FF40011FEF748FCCE
:10B230002378002BF3D002B010BD6FF400110B483F
:10B24000FEF73EFC0A4B062105221B688DF8041010
:10B25000ADF8062001A89847EAE700BF30010010CA
:10B260001C7C0240F8070020ED070020F0070020BA
:10B2700018090020134B1B68082B02D1124B002227
:10B280001A60124B124993F88E200020032A08708E
:10B2900002D0D3F8803003B1704700B56FF08071F1
:10B2A00083B00C48FEF70CFC0B4B062108221B68F0
:10B2B0008DF80410ADF8062001A8984703B05DF89A
:10B2C00004FB00BF300100101C7C0240F807002086
:10B2D000ED070020F00700201809002000B5184BEA
:10B2E0001B68082B83B002D1164B00221A60164B44
:10B2F000164993F81E210020032A087005D0D3F8C0
:10B30000103153B103B05DF804FB6FF48071104845
:10B31000FEF7D6FB03B05DF804FB6FF480710C48B8
:10B32000FEF7CEFB0B4B062188221B688DF804101C
:10B33000ADF8062001A8984703B05DF804FB00BFF4
:10B34000300100101C7C0240F8070020ED070020AF
:10B35000F0070020180900200B4B1B68082B02D1B6
:10B360000A4B00221A600A4B0A4993F89E200020DB
:10B37000032A087003D0D3F8903003B17047064811
:10B380006FF00101FEF79CBB300100101C7C0240F5
:10B39000F8070020ED070020F00700200B4B1B688A
:10B3A000082B02D10A4B00221A600A4B0A4993F873
:10B3B0000E210020032A087003D0D3F8003103B116
:10B3C000704706486FF08001FEF77ABB300100102D
:10B3D0001C7C0240F8070020ED070020F007002049
:10B3E0000B4B1B68082B02D10A4B00221A600A4B38
:10B3F0000A4993F8AE200020032A087003D0D3F83E
:10B40000A03003B1704706486FF00201FEF758BB49
:10B41000300100101C7C0240F8070020ED070020DE
:10B42000F00700200B4B1B68082B02D10A4B0022AF
:10B430001A600A4B0A4993F8BE200020032A0870BC
:10B4400003D0D3F8B03003B1704706486FF0040161
:10B45000FEF736BB300100101C7C0240F8070020CC
:10B46000ED070020F00700200B4B1B68082B02D1D2
:10B470000A4B00221A600A4B0A4993F8CE2000209A
:10B48000032A087003D0D3F8C03003B170470648D0
:10B490006FF00801FEF714BB300100101C7C024065
:10B4A000F8070020ED070020F00700200B4B1B6879
:10B4B000082B02D10A4B00221A600A4B0A4993F862
:10B4C000DE200020032A087003D0D3F8D03003B167
:10B4D000704706486FF01001FEF7F2BA3001001015
:10B4E0001C7C0240F8070020ED070020F007002038
:10B4F0000B4B1B68082B02D10A4B00221A600A4B27
:10B500000A4993F8EE200020032A087003D0D3F8EC
:10B51000E03003B1704706486FF02001FEF7D0BA63
:10B52000300100101C7C0240F8070020ED070020CD
:10B53000F00700200B4B1B68082B02D10A4B00229E
:10B540001A600A4B0A4993F8FE200020032A08706B
:10B5500003D0D3F8F03003B1704706486FF04001D4
:10B56000FEF7AEBA300100101C7C0240F807002044
:10B57000ED070020F007002010B5174B1B68082BC3
:10B5800082B002D1154B00221A60154B154C9A7FE0
:10B590000021032A217005D01B696BB1FFF70EFD56
:10B5A00002B010BD10486FF40031FEF789FA23781D
:10B5B000002BF3D002B010BD6FF400310A48FEF743
:10B5C0007FFA0A4B062101221B688DF80410ADF8A2
:10B5D000062001A89847EAE7300100101C7C0240D1
:10B5E000F8070020ED070020F007002018090020D0
:10B5F00010B5174B1B68082B82B002D1154B0022E7
:10B600001A60154B154C93F86E200021032A217007
:10B6100005D01B6E6BB1FFF7D1FC02B010BD104816
:10B620006FF48001FEF74CFA2378002BF3D002B0C0
:10B6300010BD6FF480010A48FEF742FA094A06235A
:10B6400012688DF80430ADF8063001A89047EBE79A
:10B65000300100101C7C0240F8070020ED0700209C
:10B66000F00700201809002010B5184B1B68082BA4
:10B6700082B002D1164B00221A60164B164C93F87A
:10B680007E200021032A217005D01B6F6BB1FFF7CC
:10B6900095FC02B010BD11486FF40001FEF710FADE
:10B6A0002378002BF3D002B010BD6FF400010B48DB
:10B6B000FEF706FA0A4B062107221B688DF80410D4
:10B6C000ADF8062001A89847EAE700BF3001001056
:10B6D0001C7C0240F8070020ED070020F007002046
:10B6E0001809002010B5184B1B68082B82B002D136
:10B6F000164B00221A60164B164C93F82E20002190
:10B70000032A217005D01B6A6BB1FFF757FC02B00A
:10B7100010BD11486FF48021FEF7D2F92378002B79
:10B72000F3D002B010BD6FF480210B48FEF7C8F9CA
:10B730000A4B062102221B688DF80410ADF8062082
:10B7400001A89847EAE700BF300100101C7C0240C6
:10B75000F8070020ED070020F0070020180900205E
:10B7600010B5184B1B68082B82B002D1164B002273
:10B770001A60164B164C93F83E200021032A2170C4
:10B7800005D01B6B6BB1FFF719FC02B010BD11485F
:10B790006FF40021FEF794F92378002BF3D002B068
:10B7A00010BD6FF400210B48FEF78AF90A4B062101
:10B7B00003221B688DF80410ADF8062001A89847F5
:10B7C000EAE700BF300100101C7C0240F8070020AF
:10B7D000ED070020F00700201809002010B5184BD5
:10B7E0001B68082B82B002D1164B00221A60164B40
:10B7F000164C93F84E200021032A217005D01B6CB3
:10B800006BB1FFF7DBFB02B010BD11486FF4801184
:10B81000FEF756F92378002BF3D002B010BD6FF479
:10B8200080110B48FEF74CF90A4B042206211B68D5
:10B830008DF80410ADF806200DEB02009847E9E7FB
:10B84000300100101C7C0240F8070020ED070020AA
:10B85000F0070020180900202DE9F047524BD3F8DB
:10B860006C44C3F86C4482B0BFF36F8FBFF34F8F4B
:10B870004E4E04B34E4DDFF854814E4F94FAA4F16E
:10B8800001B3B1FA81FCBCF10F0F614629DD4A4BCF
:10B89000D8F800201868012303FA0CFC103942EA9A
:10B8A0000C021CEA000FC9B224EA0C04C8F80020FC
:10B8B00009D0002CE2D133780BB9FFF77FFB02B03F
:10B8C000BDE8F0871021012306228DF807308DF89E
:10B8D00006102B688DF8042001A89847002CCDD1C4
:10B8E000E9E70CF00F0E354AD8F8000032F81E20B8
:10B8F00002F1804202F51C32012303FA0CF91368AD
:10B9000040EA090024EA0904C8F800004CF0800A63
:10B910007146D3B100231360BFF36F8FBFF34F8F16
:10B92000274ABAF1800F126829D0082A08BF3B6065
:10B93000244B03EB0E120020927B3070032A4FEA57
:10B940000E1E14D053F80E308BB11B4B1B6819EA36
:10B950000303AED106228DF807308DF806A02B68C0
:10B960008DF8042001A89847002C87D1A3E7012374
:10B9700003FA01F1C9431048FEF7A2F8E5E7082AE7
:10B9800008BF3B60104B93F89E200021032A3170C2
:10B9900003D0D3F89030002BD7D16FF001010648C7
:10B9A000FEF78EF8D1E700BF00700240ED070020DF
:10B9B000180900201C7C0240F00700203CE3020034
:10B9C0003001001088080020F8070020F40700204C
:10B9D0002DE9F04F664C674E674F236896F90010CB
:10B9E0003A68DFF8AC9196F80080D9F88054DB43D0
:10B9F0009BB2002985B043EA020327DB08F00F0B56
:10BA00000BF110024FF0010A0AFA02FA13EA0A0FC8
:10BA100047D15A4F0DF10C0805F080056FF0011168
:10BA200055483570FEF74CF8236839680022052523
:10BA300043F0010340468DF80F20ADF80D208DF83E
:10BA40000C502360884705B0BDE8F08F08F00F0A5E
:10BA50004FF0010909FA0AF913EA090FD9D00020B9
:10BA6000FBF7FAFE18F0080F10D1B8F1800F70D074
:10BA70004349444A0AF2DA335B000B6013681168E9
:10BA8000DBB243F002030B431360136823683A6888
:10BA900062EA030111EA090F21D1384F0DF10C08B8
:10BAA00019E00020FBF7D8FE3B6837483AEA03026A
:10BAB00000EB0B114FEA0B1E31D140F80E2022682B
:10BAC00023EA0A0322EA0A023B60226003232B4F87
:10BAD0008B730DF10C080020FBF7C6FE9CE72B4989
