:020000022000DC
:1070000000000420917A0200B97A0200BB7A0200E3
:10701000BD7A0200BF7A0200C17A020000000000BF
:10702000000000000000000000000000C37A020021
:10703000C57A020000000000C77A0200C97A020087
:10704000CB7A020039750200CB7A0200CB7A0200BB
:10705000CB7A0200CB7A0200CB7A0200CB7A020014
:10706000CB7A0200CB7A0200BD780200CB7A020014
:10707000CB7A0200CB7A0200CB7A0200CB7A0200F4
:10708000CB7A0200CB7A0200CB7A0200CB7A0200E4
:10709000CB7A0200CB7A0200CB7A0200CB7A0200D4
:1070A000CB7A0200CB7A0200F5780200CB7A02009C
:1070B000CB7A0200CB7A0200000000000000000042
:1070C000CB7A0200CB7A0200CB7A0200CB7A0200A4
:1070D000CB7A0200CB7A0200CB7A0200CB7A020094
:1070E000CB7A0200CB7A0200CB7A020000000000CB
:1070F00000000000CB7A020000000000CB7A020002
:10710000000000000000000000000000000000007F
:10711000000000000000000000000000000000006F
:10712000000000000000000000000000000000005F
:10713000000000000000000000000000000000004F
:10714000000000000000000000000000000000003F
:10715000000000000000000000000000000000002F
:10716000000000000000000000000000000000001F
:10717000000000000000000000000000000000000F
:1071800000000000000000000000000000000000FF
:1071900000000000000000000000000000000000EF
:1071A00000000000000000000000000000000000DF
:1071B00000000000000000000000000000000000CF
:1071C00000000000000000000000000000000000BF
:1071D00000000000000000000000000000000000AF
:1071E000000000000000000000000000000000009F
:1071F000000000000000000000000000000000008F
:1072000010B5054C237833B9044B13B10448AFF3E0
:1072100000800123237010BD7400002000000000D6
:10722000F47E020008B5034B1BB103490348AFF3DA
:10723000008008BD0000000078000020F47E0200FD
:10724000A3F5803A704700BF174B002B08BF134BC4
:107250009D46FFF7F5FF00218B460F461348144A61
:10726000121A00F02FFE0E4B002B00D098470D4B4A
:10727000002B00D098470020002104000D000D488D
:10728000002802D00C48AFF3008000F0F7FD20008A
:10729000290000F013F800F0DDFD00BF0000080039
:1072A0000000000000000000000004207400002026
:1072B000880C00200000000000000000F8B54FF02E
:1072C000A04303214FF40042C3F83C174FF47A70F7
:1072D000C3F80C2500F068FA4FF08043002101222A
:1072E000C3F8001119461A60D1F80031002BFBD009
:1072F00000F0A8FA012000F069FA01234FF4486277
:107300004FF47A71152000F05DFB022000F05EFA68
:107310000320254D254C264F00F058FA2E4600F04C
:10732000D5FA00F06BFB002837D0012000F04EFAB0
:107330004FF48271304600F067FB4F22D523637013
:1073400022706B78D7F84825A270002BE7D05A1E20
:10735000022A26D903F0FC01134A1648294452F8A0
:1073600004CB40F804CB8A42F9D133F0FC0123F07E
:107370000302D4D0A118A85CC870501C9842CEDA81
:107380000232285C08719342C9DDAB5C4B7100F09E
:107390009DFA00F033FB0028C7D1022000F016FA56
:1073A000BDE70022E6E700BF00020020FC0000204D
:1073B00000100040FF000020F0B4304B304E314C44
:1073C0001B680227C6F8807001250426B1F57A7F74
:1073D000C4F8FC5FC4F80C65C4F808054AD040F254
:1073E000E930814240D10321C4F81015D8B2254BB1
:1073F000254D264C2649C3F82445C3F82815C3F863
:107400001C550021C3F820550125C3F82C1540F068
:107410004170C3F830554FF48475C3F81455C3F860
:1074200018054020C3F854051E20C3F84405144C29
:10743000C3F83425174EAA2540F207104FF0FF324B
:10744000C3F83C55C3F83805C3F810110820C3F839
:107450000C11C3F808230222C3F80403316084F836
:1074600001132260F0BC7047B1F5FA6F08BFC4F891
:107470001055BBE70021C4F81015B7E70000002045
:1074800000E100E000100040A70DE60E1122334499
:1074900055667788A400002010B4224A224B234965
:1074A0001068234A0860C3F80425D3F85025032A3E
:1074B00020D0D3F85025012A1CD0D3F85025022A19
:1074C00018D0D3F85025AAB1D3F85025042A1DD0DE
:1074D000D3F850250C2A19D000210120C3F800123E
:1074E0001A46C3F810111861D2F85035002BFBD1A1
:1074F000C2F810310C4B0F4A112401200521C3F8AA
:107500000042586011705DF8044B7047064AD2F88B
:107510005035042BFBD0044AD2F850350C2BFBD04D
:10752000E8E700BFB00000200010004098000020F5
:1075300044040020950000208D4B1A6802B11047CA
:107540008C4BD3F80411002948D1D3F80C21A2B1F7
:107550008948884A894900230360C2F80C310B78B6
:10756000022B37D00B78012B40D00B78042B1ED088
:107570000B78052BD8B242D070477F490A60C3F818
:107580000021C3F80421C3F80821C3F80C21C3F873
:107590001021C3F81421C3F81821C3F81C21C3F823
:1075A0002821C3F83021C3F834210A607047744B96
:1075B000C2F80435134603E0D3F85025032A03D05C
:1075C000D3F85025022AF7D16A4A11200523C2F8C0
:1075D00000020B706B4B1B683BB11847C3F80421CA
:1075E000D3F80C31002BB3D170477047664A13684B
:1075F00001331360654B1B68002BEED1BCE770B400
:10760000614C634D23682D7801332360002D5AD0DF
:10761000D2F800345F4A002B64D012785E4B5F488A
:107620000124A2421C6002F102055D4B40F39C80E4
:1076300004681C60AC08012C1AD046685E60022CFD
:1076400016D086689E60032C12D0C668DE60042CBB
:107650000ED006691E61052C0AD046695E61062CB3
:1076600006D0072C866918BFC4699E6118BFDC610B
:1076700035F4FE7425F003060DD0845D9C559642CA
:1076800006F1010407DC055D1D55944204F1010576
:1076900001DC405D5855FAB1364804220325012427
:1076A0000A70C0F804350246C0F800520460D2F8EF
:1076B0005035002BFBD0D2F8003243F01803C2F84B
:1076C000003270BC70470123087093602F4B1B6819
:1076D000002BF6D070BC80E7264B052001220870F5
:1076E0009A60EEE712782C4B4FF0FF30012A1860B9
:1076F00002F102052B482A4B32DD04681C60AC08FD
:10770000012C1AD046685E60022C16D086689E60F6
:10771000032C12D0C668DE60042C0ED006691E61F0
:10772000052C0AD046695E61062C06D0072C8669B6
:1077300018BFC4699E6118BFDC6125F0030435F4ED
:10774000FE75A8D0055D1D55A24204F10105A2DB1E
:10775000445D5C556C1CAA42A4BF005D18559AE7B5
:1077600004781C700125F3E705781D708BE700BFD6
:10777000A400002000100040A00000209500002080
:1077800044040020AC000020B0000020A80000202D
:10779000940000209C000020900000202403002082
:1077A000440300200403002082B04FF47A5303FB0B
:1077B00000F00190019B5A1E01922BB100BF019B6A
:1077C0005A1E0192002BF9D102B07047F0B484B078
:1077D00020B34FF40046194D374600214FF0A04426
:1077E000C4F808750295029B5A1E02922BB100BF85
:1077F000029B5A1E0292002BF9D1C4F80C65019528
:10780000019B5A1E01922BB100BF019B5A1E01928F
:10781000002BF9D10131C9B28142E1D3084B039366
:10782000039B5A1E03922BB100BF039B5A1E039267
:10783000002BF9D104B0F0BC704700BF006A1800FB
:10784000003E4900144B15481549F0B400220327A7
:10785000C3F80425C3F808750427C3F84015114D73
:10786000C3F810750121104CC3F804234FF480674E
:10787000C3F800120760402780F80A730B4E2A6095
:107880000B4822600B4D0C4C32602A60226019605C
:107890000170F0BC704700BF00A0004000E100E0B4
:1078A00040420F00B4000020BC000020C4000020B3
:1078B000EC000020B8000020C0000020024B002295
:1078C000C3F84021704700BF00A00040064A0748A7
:1078D000074901239364D2F848350068A1FB0323CC
:1078E00000EB9310704700BF00A00040BC000020D8
:1078F000D34D621010B5294BD3F840217AB1284AF4
:107900000021C3F84011106830BB264B1B68984714
:10791000254A1368FBB1012B2CD0022B22D01F4B20
:10792000D3F8442142B1214A0021C3F8441113681D
:1079300013B11F4B1B689847184BD3F8482152B11D
:107940001C4A0021C3F84811136823B11A4BBDE843
:1079500010401B68184710BD18480068C3F8400560
:107960001160D2E715490D4B0968C3F84015002393
:107970001360D4E7114B12491B68096807480B4490
:10798000322B38BF3223C0F840350221034B11603F
:10799000D3F84421002ACFD0C5E700BF00A00140A2
:1079A000D4000020C8000020D0000020E00000200B
:1079B000DC000020E8000020E4000020D8000020C7
:1079C000CC00002038B5154603221C46FFF7F4FC16
:1079D000074A084B15601C60FFF75EFD064B01224D
:1079E0000021C3F80012C3F804251A6038BD00BF97
:1079F00004000020F400002000D00040014B186873
:107A0000704700BFF8000020F0B41E4E1E4C3268D4
:107A100091424FF00005A8BF1146A942256023DD21
:107A20001A4FC31CDB1B062B21D94B1E072B1ED95B
:107A300021F0030505443A46034652F8044B43F847
:107A4000044BAB42F9D18A0721F003030BD0FA5C57
:107A5000C2545A1C914206DD0233BC5C84549942E4
:107A600001DDFA5CC25432681046F0BC7047431E18
:107A7000064A194412F8010B03F8010F8B42F9D1A1
:107A8000F1E700BFF0000020F800002048060020C9
:107A90000649074A074B9B1A03DD043BC858D050E0
:107AA000FBDC00F013F8FFF7CFFB0000007F0200C3
:107AB0000000002074000020FEE7FEE7FEE7FEE77E
:107AC000FEE7FEE7FEE7FEE7FEE7FEE730B4B04B79
:107AD0001B78062B1BD0AF4AD2F8883043F47003D2
:107AE000C2F88830BFF34F8FBFF36F8F4FF0102372
:107AF000D3F80022002AC0F27581D3F80432002B9B
:107B0000C0F27081A44BA54A1A6030BC7047A44BE8
:107B10001B681D07DFD1A34B1B6803F0F002302A5E
:107B200000F0908003F0E003402B00F08B809D4B31
:107B30001B6803F0F003302B00F09580994B1B6815
:107B400003F0F002302A6CD003F0E003402B68D041
:107B5000944B1B6803F0F003302B00F00981914B2C
:107B60001B6803F0F002302A47D003F0E003402BFB
:107B700043D08C4B1B6803F0F003302B00F0EA80FD
:107B8000884B1B6803F0F003302B00F0CC80854B52
:107B90001B6803F0F003502B73D0824B1B6803F07B
:107BA000F002302A18D003F0E003402B14D07D4BB4
:107BB0001B6803F0F002302A03D003F0E003402BEF
:107BC00089D14FF08043D3F80024D20744BF6FF02F
:107BD0000102C3F800247EE7734B6D4A1B681278DC
:107BE000724903F04F03062A0B607FF474AF6C4BAD
:107BF0001B6819077FF46FAFD9E7654A11784FF01A
:107C0000804300220629C3F80C21C3F81021C3F8D1
:107C100038257FF460AF624B1B681B077FF45BAFB6
:107C2000A7E7634B5A4A1B6812786249C3F3423391
:107C3000062A0B607FF44FAF594B1B6819077FF47E
:107C40004AAF85E75C4B524A1B6812785B49C3F325
:107C50000423062A0B607FF43EAF514B1B681C07C0
:107C60007FF439AF63E74A4B554A1B785549116099
:107C7000062B7FF430AF4A4B1B6818077FF42BAFFD
:107C80005CE74FF08052504BD2F80414C3F8201533
:107C9000D2F80814C3F82415D2F80C14C3F8281528
:107CA000D2F81014C3F82C15D2F81414C3F83015F8
:107CB000D2F81814C3F83415D2F81C14C3F84015C0
:107CC000D2F82014C3F84415D2F82414C3F8481588
:107CD000D2F82814C3F84C15D2F82C14C3F8501558
:107CE000D2F83014C3F85415D2F83414C3F8601520
:107CF000D2F83814C3F86415D2F83C14C3F86815E8
:107D0000D2F840142248C3F86C15D2F84414027813
:107D1000C3F87015062A7FF4DEAE214B1B681807E6
:107D20007FF4D9AE39E71A4B284C1B7828492948EB
:107D3000294A0525256001250D6000243F21062BD9
:107D4000046011607FF4C7AE154B1B681C077FF4FD
:107D5000C2AE1CE70E4B214A1B780321062B116093
:107D60007FF4B9AE0E4B1B681D077FF4B4AE07E776
:107D70001B4A0749D368097823F080730629D3602A
:107D80007FF4A9AE064B1B681A077FF4A4AEE6E6A3
:107D9000E00F00F000ED00E0080000200090D003AC
:107DA000E40F00F0E80F00F058020010E40E00406D
:107DB000440200103C0500402403001040350140FF
:107DC00074C007400DF0ADBA00C00040105600402E
:107DD000885600401856004014560040A005004048
:107DE000F0ED00E0184A0123C2F80435D2F800345F
:107DF000002BFBD04FF010231521134AC3F80012BB
:107E0000D2F80034002BFBD04FF0102315210E4A7E
:107E1000C3F80412D2F80034002BFBD000230A4927
:107E2000C2F80435D1F80034002BFBD0BFF34F8FDC
:107E30000649074BCA6802F4E0621343CB60BFF304
:107E40004F8F00BFFDE700BF00E0014000ED00E004
:107E50000400FA0508B5074B044613B10021AFF33F
:107E60000080054B1868836A03B19847204600F0EC
:107E700031F800BF00000000F07E020070B50D4D2B
:107E80000D4C641BA4100026A64209D10B4D0C4CCE
:107E900000F022F8641BA4100026A64205D170BD94
:107EA00055F8043B98470136EEE755F8043B9847F0
:107EB0000136F2E76C0000206C0000206C0000200E
:107EC0007000002002440346934200D1704703F83B
:107ED000011BF9E7FEE700BFF8B500BFF8BC08BC1E
:107EE0009E467047F8B500BFF8BC08BC9E46704778
:087EF0000C000020000000005E
:087EF80048F3FF7F01000000C8
:107F0000FF000000C40900000090D0030000000042
:107F10000000000000000000000000000000000061
:107F20000000000000000000000000000000000051
:107F30000000000000000000000000000000000041
:107F40000000000000000000000000000000000031
:107F50000000000000000000000000000000000021
:107F60000000000000000000000000002572020078
:047F70000172020098
:0400000320007A91CE
:00000001FF
